{
  "_format": "hh-sol-artifact-1",
  "contractName": "StakingTokenPool",
  "sourceName": "contracts/StakingTokenPool.sol",
  "abi": [
    {
      "inputs": [
        {
          "internalType": "address",
          "name": "_wibuNFTAddress",
          "type": "address"
        },
        {
          "internalType": "address",
          "name": "_wibuTokenAddress",
          "type": "address"
        }
      ],
      "stateMutability": "nonpayable",
      "type": "constructor"
    },
    {
      "anonymous": false,
      "inputs": [
        {
          "indexed": true,
          "internalType": "uint256",
          "name": "amount",
          "type": "uint256"
        },
        {
          "indexed": false,
          "internalType": "address",
          "name": "owner",
          "type": "address"
        },
        {
          "indexed": false,
          "internalType": "uint256",
          "name": "stackingTime",
          "type": "uint256"
        }
      ],
      "name": "TokenStackedSuccess",
      "type": "event"
    },
    {
      "inputs": [
        {
          "internalType": "uint256",
          "name": "_amount",
          "type": "uint256"
        }
      ],
      "name": "StackingToken",
      "outputs": [
        {
          "internalType": "uint256",
          "name": "",
          "type": "uint256"
        }
      ],
      "stateMutability": "nonpayable",
      "type": "function"
    },
    {
      "inputs": [],
      "name": "claimReward",
      "outputs": [],
      "stateMutability": "nonpayable",
      "type": "function"
    },
    {
      "inputs": [],
      "name": "get_owner",
      "outputs": [
        {
          "internalType": "address",
          "name": "",
          "type": "address"
        }
      ],
      "stateMutability": "view",
      "type": "function"
    },
    {
      "inputs": [
        {
          "internalType": "string",
          "name": "_NFT_url",
          "type": "string"
        }
      ],
      "name": "mintNFT",
      "outputs": [
        {
          "internalType": "uint256",
          "name": "",
          "type": "uint256"
        }
      ],
      "stateMutability": "nonpayable",
      "type": "function"
    },
    {
      "inputs": [],
      "name": "owner",
      "outputs": [
        {
          "internalType": "address",
          "name": "",
          "type": "address"
        }
      ],
      "stateMutability": "view",
      "type": "function"
    },
    {
      "inputs": [
        {
          "internalType": "address",
          "name": "",
          "type": "address"
        }
      ],
      "name": "stakings",
      "outputs": [
        {
          "internalType": "uint256",
          "name": "amount",
          "type": "uint256"
        },
        {
          "internalType": "address payable",
          "name": "owner",
          "type": "address"
        },
        {
          "internalType": "uint256",
          "name": "stackingTime",
          "type": "uint256"
        }
      ],
      "stateMutability": "view",
      "type": "function"
    },
    {
      "inputs": [],
      "name": "wibuNFT",
      "outputs": [
        {
          "internalType": "contract WibuNFT",
          "name": "",
          "type": "address"
        }
      ],
      "stateMutability": "view",
      "type": "function"
    },
    {
      "inputs": [],
      "name": "wibuToken",
      "outputs": [
        {
          "internalType": "contract WibuToken",
          "name": "",
          "type": "address"
        }
      ],
      "stateMutability": "view",
      "type": "function"
    }
  ],
  "bytecode": "0x60806040523480156200001157600080fd5b50604051620013b1380380620013b183398181016040528101906200003791906200016b565b336000806101000a81548173ffffffffffffffffffffffffffffffffffffffff021916908373ffffffffffffffffffffffffffffffffffffffff16021790555081600160006101000a81548173ffffffffffffffffffffffffffffffffffffffff021916908373ffffffffffffffffffffffffffffffffffffffff16021790555080600260006101000a81548173ffffffffffffffffffffffffffffffffffffffff021916908373ffffffffffffffffffffffffffffffffffffffff1602179055505050620001b2565b600080fd5b600073ffffffffffffffffffffffffffffffffffffffff82169050919050565b6000620001338262000106565b9050919050565b620001458162000126565b81146200015157600080fd5b50565b60008151905062000165816200013a565b92915050565b6000806040838503121562000185576200018462000101565b5b6000620001958582860162000154565b9250506020620001a88582860162000154565b9150509250929050565b6111ef80620001c26000396000f3fe608060405234801561001057600080fd5b50600436106100885760003560e01c8063b88a802f1161005b578063b88a802f14610105578063b9da4f2a1461010f578063dc6e13e11461013f578063fb37e8831461017157610088565b80630ac298dc1461008d57806354596af9146100ab5780637be3251b146100c95780638da5cb5b146100e7575b600080fd5b6100956101a1565b6040516100a29190610900565b60405180910390f35b6100b36101ca565b6040516100c0919061097a565b60405180910390f35b6100d16101f0565b6040516100de91906109b6565b60405180910390f35b6100ef610216565b6040516100fc9190610900565b60405180910390f35b61010d61023a565b005b61012960048036038101906101249190610a1b565b61053b565b6040516101369190610a57565b60405180910390f35b61015960048036038101906101549190610a9e565b6107ce565b60405161016893929190610aec565b60405180910390f35b61018b60048036038101906101869190610c69565b610818565b6040516101989190610a57565b60405180910390f35b60008060009054906101000a900473ffffffffffffffffffffffffffffffffffffffff16905090565b600160009054906101000a900473ffffffffffffffffffffffffffffffffffffffff1681565b600260009054906101000a900473ffffffffffffffffffffffffffffffffffffffff1681565b60008054906101000a900473ffffffffffffffffffffffffffffffffffffffff1681565b6001600360003373ffffffffffffffffffffffffffffffffffffffff1673ffffffffffffffffffffffffffffffffffffffff168152602001908152602001600020600201546102899190610ce1565b4310156102cb576040517f08c379a00000000000000000000000000000000000000000000000000000000081526004016102c290610d98565b60405180910390fd5b600260009054906101000a900473ffffffffffffffffffffffffffffffffffffffff1673ffffffffffffffffffffffffffffffffffffffff1663a9059cbb3360646040518363ffffffff1660e01b8152600401610329929190610df3565b6020604051808303816000875af1158015610348573d6000803e3d6000fd5b505050506040513d601f19601f8201168201806040525081019061036c9190610e54565b506000600160009054906101000a900473ffffffffffffffffffffffffffffffffffffffff1673ffffffffffffffffffffffffffffffffffffffff1663bdc130c26040518163ffffffff1660e01b8152600401600060405180830381865afa1580156103dc573d6000803e3d6000fd5b505050506040513d6000823e3d601f19601f820116820180604052508101906104059190610f5e565b9050600160009054906101000a900473ffffffffffffffffffffffffffffffffffffffff1673ffffffffffffffffffffffffffffffffffffffff166323b872dd303384600186516104569190610fa7565b8151811061046757610466610fdb565b5b60200260200101516040518463ffffffff1660e01b815260040161048d9392919061100a565b600060405180830381600087803b1580156104a757600080fd5b505af11580156104bb573d6000803e3d6000fd5b50505050600360003373ffffffffffffffffffffffffffffffffffffffff1673ffffffffffffffffffffffffffffffffffffffff1681526020019081526020016000206000808201600090556001820160006101000a81549073ffffffffffffffffffffffffffffffffffffffff02191690556002820160009055505050565b600081600260009054906101000a900473ffffffffffffffffffffffffffffffffffffffff1673ffffffffffffffffffffffffffffffffffffffff166370a08231336040518263ffffffff1660e01b81526004016105999190610900565b602060405180830381865afa1580156105b6573d6000803e3d6000fd5b505050506040513d601f19601f820116820180604052508101906105da9190611041565b101561061b576040517f08c379a0000000000000000000000000000000000000000000000000000000008152600401610612906110e0565b60405180910390fd5b600260009054906101000a900473ffffffffffffffffffffffffffffffffffffffff1673ffffffffffffffffffffffffffffffffffffffff166323b872dd3330856040518463ffffffff1660e01b815260040161067a9392919061100a565b6020604051808303816000875af1158015610699573d6000803e3d6000fd5b505050506040513d601f19601f820116820180604052508101906106bd9190610e54565b5060405180606001604052808381526020013373ffffffffffffffffffffffffffffffffffffffff16815260200143815250600360003373ffffffffffffffffffffffffffffffffffffffff1673ffffffffffffffffffffffffffffffffffffffff1681526020019081526020016000206000820151816000015560208201518160010160006101000a81548173ffffffffffffffffffffffffffffffffffffffff021916908373ffffffffffffffffffffffffffffffffffffffff16021790555060408201518160020155905050817fa7cc93ad92b4f5cc45c1f7e581b2a17f1c240bbffddb41ca29deff66655c9a6933436040516107be929190611100565b60405180910390a2439050919050565b60036020528060005260406000206000915090508060000154908060010160009054906101000a900473ffffffffffffffffffffffffffffffffffffffff16908060020154905083565b6000600160009054906101000a900473ffffffffffffffffffffffffffffffffffffffff1673ffffffffffffffffffffffffffffffffffffffff1663da2ed03e836040518263ffffffff1660e01b81526004016108759190611197565b6020604051808303816000875af1158015610894573d6000803e3d6000fd5b505050506040513d601f19601f820116820180604052508101906108b89190611041565b9050919050565b600073ffffffffffffffffffffffffffffffffffffffff82169050919050565b60006108ea826108bf565b9050919050565b6108fa816108df565b82525050565b600060208201905061091560008301846108f1565b92915050565b6000819050919050565b600061094061093b610936846108bf565b61091b565b6108bf565b9050919050565b600061095282610925565b9050919050565b600061096482610947565b9050919050565b61097481610959565b82525050565b600060208201905061098f600083018461096b565b92915050565b60006109a082610947565b9050919050565b6109b081610995565b82525050565b60006020820190506109cb60008301846109a7565b92915050565b6000604051905090565b600080fd5b600080fd5b6000819050919050565b6109f8816109e5565b8114610a0357600080fd5b50565b600081359050610a15816109ef565b92915050565b600060208284031215610a3157610a306109db565b5b6000610a3f84828501610a06565b91505092915050565b610a51816109e5565b82525050565b6000602082019050610a6c6000830184610a48565b92915050565b610a7b816108df565b8114610a8657600080fd5b50565b600081359050610a9881610a72565b92915050565b600060208284031215610ab457610ab36109db565b5b6000610ac284828501610a89565b91505092915050565b6000610ad6826108bf565b9050919050565b610ae681610acb565b82525050565b6000606082019050610b016000830186610a48565b610b0e6020830185610add565b610b1b6040830184610a48565b949350505050565b600080fd5b600080fd5b6000601f19601f8301169050919050565b7f4e487b7100000000000000000000000000000000000000000000000000000000600052604160045260246000fd5b610b7682610b2d565b810181811067ffffffffffffffff82111715610b9557610b94610b3e565b5b80604052505050565b6000610ba86109d1565b9050610bb48282610b6d565b919050565b600067ffffffffffffffff821115610bd457610bd3610b3e565b5b610bdd82610b2d565b9050602081019050919050565b82818337600083830152505050565b6000610c0c610c0784610bb9565b610b9e565b905082815260208101848484011115610c2857610c27610b28565b5b610c33848285610bea565b509392505050565b600082601f830112610c5057610c4f610b23565b5b8135610c60848260208601610bf9565b91505092915050565b600060208284031215610c7f57610c7e6109db565b5b600082013567ffffffffffffffff811115610c9d57610c9c6109e0565b5b610ca984828501610c3b565b91505092915050565b7f4e487b7100000000000000000000000000000000000000000000000000000000600052601160045260246000fd5b6000610cec826109e5565b9150610cf7836109e5565b9250828201905080821115610d0f57610d0e610cb2565b5b92915050565b600082825260208201905092915050565b7f4d696e696d756d20737461636b696e672074696d65206e6f742072656163686560008201527f6400000000000000000000000000000000000000000000000000000000000000602082015250565b6000610d82602183610d15565b9150610d8d82610d26565b604082019050919050565b60006020820190508181036000830152610db181610d75565b9050919050565b6000819050919050565b6000610ddd610dd8610dd384610db8565b61091b565b6109e5565b9050919050565b610ded81610dc2565b82525050565b6000604082019050610e0860008301856108f1565b610e156020830184610de4565b9392505050565b60008115159050919050565b610e3181610e1c565b8114610e3c57600080fd5b50565b600081519050610e4e81610e28565b92915050565b600060208284031215610e6a57610e696109db565b5b6000610e7884828501610e3f565b91505092915050565b600067ffffffffffffffff821115610e9c57610e9b610b3e565b5b602082029050602081019050919050565b600080fd5b600081519050610ec1816109ef565b92915050565b6000610eda610ed584610e81565b610b9e565b90508083825260208201905060208402830185811115610efd57610efc610ead565b5b835b81811015610f265780610f128882610eb2565b845260208401935050602081019050610eff565b5050509392505050565b600082601f830112610f4557610f44610b23565b5b8151610f55848260208601610ec7565b91505092915050565b600060208284031215610f7457610f736109db565b5b600082015167ffffffffffffffff811115610f9257610f916109e0565b5b610f9e84828501610f30565b91505092915050565b6000610fb2826109e5565b9150610fbd836109e5565b9250828203905081811115610fd557610fd4610cb2565b5b92915050565b7f4e487b7100000000000000000000000000000000000000000000000000000000600052603260045260246000fd5b600060608201905061101f60008301866108f1565b61102c60208301856108f1565b6110396040830184610a48565b949350505050565b600060208284031215611057576110566109db565b5b600061106584828501610eb2565b91505092915050565b7f596f7520646f6e2774206861766520656e6f7567682062616c616e636520746f60008201527f206d616b652061207472616e73616374696f6e00000000000000000000000000602082015250565b60006110ca603383610d15565b91506110d58261106e565b604082019050919050565b600060208201905081810360008301526110f9816110bd565b9050919050565b600060408201905061111560008301856108f1565b6111226020830184610a48565b9392505050565b600081519050919050565b60005b83811015611152578082015181840152602081019050611137565b60008484015250505050565b600061116982611129565b6111738185610d15565b9350611183818560208601611134565b61118c81610b2d565b840191505092915050565b600060208201905081810360008301526111b1818461115e565b90509291505056fea26469706673582212205d8756d1a12aa83a00987c70049e5ebabf09ad320d748bef11042561bb59ca2364736f6c63430008120033",
  "linkReferences": {},
  "deployedLinkReferences": {}
}