{
  "_format": "hh-sol-artifact-1",
  "contractName": "StakingTokenPool",
  "sourceName": "contracts/StakingTokenPool.sol",
  "abi": [
    {
      "inputs": [
        {
          "internalType": "address",
          "name": "_wibuNFTAddress",
          "type": "address"
        },
        {
          "internalType": "address",
          "name": "_wibuTokenAddress",
          "type": "address"
        },
        {
          "internalType": "uint256",
          "name": "_standardBalance",
          "type": "uint256"
        },
        {
          "internalType": "uint256",
          "name": "_standardTime",
          "type": "uint256"
        }
      ],
      "stateMutability": "nonpayable",
      "type": "constructor"
    },
    {
      "anonymous": false,
      "inputs": [
        {
          "indexed": true,
          "internalType": "uint256",
          "name": "amount",
          "type": "uint256"
        },
        {
          "indexed": false,
          "internalType": "address",
          "name": "owner",
          "type": "address"
        },
        {
          "indexed": false,
          "internalType": "uint256",
          "name": "stackingTime",
          "type": "uint256"
        },
        {
          "indexed": false,
          "internalType": "bool",
          "name": "flag",
          "type": "bool"
        }
      ],
      "name": "TokenStackedSuccess",
      "type": "event"
    },
    {
      "inputs": [
        {
          "internalType": "uint256",
          "name": "_amount",
          "type": "uint256"
        }
      ],
      "name": "StackingToken",
      "outputs": [
        {
          "internalType": "uint256",
          "name": "",
          "type": "uint256"
        }
      ],
      "stateMutability": "nonpayable",
      "type": "function"
    },
    {
      "inputs": [],
      "name": "checkTime",
      "outputs": [
        {
          "internalType": "uint256",
          "name": "",
          "type": "uint256"
        }
      ],
      "stateMutability": "view",
      "type": "function"
    },
    {
      "inputs": [],
      "name": "claimNFT",
      "outputs": [],
      "stateMutability": "nonpayable",
      "type": "function"
    },
    {
      "inputs": [],
      "name": "claimReward",
      "outputs": [],
      "stateMutability": "nonpayable",
      "type": "function"
    },
    {
      "inputs": [],
      "name": "get_owner",
      "outputs": [
        {
          "internalType": "address",
          "name": "",
          "type": "address"
        }
      ],
      "stateMutability": "view",
      "type": "function"
    },
    {
      "inputs": [],
      "name": "get_standardBalance",
      "outputs": [
        {
          "internalType": "uint256",
          "name": "",
          "type": "uint256"
        }
      ],
      "stateMutability": "view",
      "type": "function"
    },
    {
      "inputs": [
        {
          "internalType": "string",
          "name": "_NFT_url",
          "type": "string"
        }
      ],
      "name": "mintNFT",
      "outputs": [
        {
          "internalType": "uint256",
          "name": "",
          "type": "uint256"
        }
      ],
      "stateMutability": "nonpayable",
      "type": "function"
    },
    {
      "inputs": [],
      "name": "owner",
      "outputs": [
        {
          "internalType": "address",
          "name": "",
          "type": "address"
        }
      ],
      "stateMutability": "view",
      "type": "function"
    },
    {
      "inputs": [],
      "name": "rewardToken",
      "outputs": [],
      "stateMutability": "nonpayable",
      "type": "function"
    },
    {
      "inputs": [
        {
          "internalType": "address",
          "name": "",
          "type": "address"
        }
      ],
      "name": "stakings",
      "outputs": [
        {
          "internalType": "uint256",
          "name": "amount",
          "type": "uint256"
        },
        {
          "internalType": "address payable",
          "name": "owner",
          "type": "address"
        },
        {
          "internalType": "uint256",
          "name": "stackingTime",
          "type": "uint256"
        },
        {
          "internalType": "bool",
          "name": "flag",
          "type": "bool"
        }
      ],
      "stateMutability": "view",
      "type": "function"
    },
    {
      "inputs": [],
      "name": "standardBalance",
      "outputs": [
        {
          "internalType": "uint256",
          "name": "",
          "type": "uint256"
        }
      ],
      "stateMutability": "view",
      "type": "function"
    },
    {
      "inputs": [],
      "name": "standardTime",
      "outputs": [
        {
          "internalType": "uint256",
          "name": "",
          "type": "uint256"
        }
      ],
      "stateMutability": "view",
      "type": "function"
    },
    {
      "inputs": [],
      "name": "wibuNFT",
      "outputs": [
        {
          "internalType": "contract WibuNFT",
          "name": "",
          "type": "address"
        }
      ],
      "stateMutability": "view",
      "type": "function"
    },
    {
      "inputs": [],
      "name": "wibuToken",
      "outputs": [
        {
          "internalType": "contract WibuToken",
          "name": "",
          "type": "address"
        }
      ],
      "stateMutability": "view",
      "type": "function"
    }
  ],
  "bytecode": "0x60806040523480156200001157600080fd5b506040516200229e3803806200229e8339818101604052810190620000379190620001b6565b336000806101000a81548173ffffffffffffffffffffffffffffffffffffffff021916908373ffffffffffffffffffffffffffffffffffffffff16021790555083600160006101000a81548173ffffffffffffffffffffffffffffffffffffffff021916908373ffffffffffffffffffffffffffffffffffffffff16021790555082600260006101000a81548173ffffffffffffffffffffffffffffffffffffffff021916908373ffffffffffffffffffffffffffffffffffffffff16021790555081600381905550806004819055505050505062000228565b600080fd5b600073ffffffffffffffffffffffffffffffffffffffff82169050919050565b6000620001438262000116565b9050919050565b620001558162000136565b81146200016157600080fd5b50565b60008151905062000175816200014a565b92915050565b6000819050919050565b62000190816200017b565b81146200019c57600080fd5b50565b600081519050620001b08162000185565b92915050565b60008060008060808587031215620001d357620001d262000111565b5b6000620001e38782880162000164565b9450506020620001f68782880162000164565b935050604062000209878288016200019f565b92505060606200021c878288016200019f565b91505092959194509250565b61206680620002386000396000f3fe608060405234801561001057600080fd5b50600436106100ea5760003560e01c8063b88a802f1161008c578063e0c6190d11610066578063e0c6190d1461021a578063f7c618c114610238578063fa818aa914610242578063fb37e88314610260576100ea565b8063b88a802f146101ad578063b9da4f2a146101b7578063dc6e13e1146101e7576100ea565b8063672756ad116100c8578063672756ad146101495780637be3251b14610153578063827d1f9d146101715780638da5cb5b1461018f576100ea565b80630ac298dc146100ef5780634f2ae3361461010d57806354596af91461012b575b600080fd5b6100f7610290565b604051610104919061169a565b60405180910390f35b6101156102b9565b60405161012291906116ce565b60405180910390f35b6101336102bf565b6040516101409190611748565b60405180910390f35b6101516102e5565b005b61015b610707565b6040516101689190611784565b60405180910390f35b61017961072d565b60405161018691906116ce565b60405180910390f35b610197610737565b6040516101a4919061169a565b60405180910390f35b6101b561075b565b005b6101d160048036038101906101cc91906117df565b610c10565b6040516101de91906116ce565b60405180910390f35b61020160048036038101906101fc9190611838565b6112b8565b60405161021194939291906118a1565b60405180910390f35b610222611315565b60405161022f91906116ce565b60405180910390f35b61024061136a565b005b61024a6115ac565b60405161025791906116ce565b60405180910390f35b61027a60048036038101906102759190611a2c565b6115b2565b60405161028791906116ce565b60405180910390f35b60008060009054906101000a900473ffffffffffffffffffffffffffffffffffffffff16905090565b60045481565b600160009054906101000a900473ffffffffffffffffffffffffffffffffffffffff1681565b3373ffffffffffffffffffffffffffffffffffffffff16600560003373ffffffffffffffffffffffffffffffffffffffff1673ffffffffffffffffffffffffffffffffffffffff16815260200190815260200160002060010160009054906101000a900473ffffffffffffffffffffffffffffffffffffffff1673ffffffffffffffffffffffffffffffffffffffff16146103b5576040517f08c379a00000000000000000000000000000000000000000000000000000000081526004016103ac90611af8565b60405180910390fd5b60011515600560003373ffffffffffffffffffffffffffffffffffffffff1673ffffffffffffffffffffffffffffffffffffffff16815260200190815260200160002060030160009054906101000a900460ff1615151461044b576040517f08c379a000000000000000000000000000000000000000000000000000000000815260040161044290611b8a565b60405180910390fd5b600454600560003373ffffffffffffffffffffffffffffffffffffffff1673ffffffffffffffffffffffffffffffffffffffff1681526020019081526020016000206002015461049b9190611bd9565b4310156104dd576040517f08c379a00000000000000000000000000000000000000000000000000000000081526004016104d490611c7f565b60405180910390fd5b600160009054906101000a900473ffffffffffffffffffffffffffffffffffffffff1673ffffffffffffffffffffffffffffffffffffffff166323b872dd3033600160009054906101000a900473ffffffffffffffffffffffffffffffffffffffff1673ffffffffffffffffffffffffffffffffffffffff1663bdc130c26040518163ffffffff1660e01b8152600401600060405180830381865afa15801561058a573d6000803e3d6000fd5b505050506040513d6000823e3d601f19601f820116820180604052508101906105b39190611d7c565b60018060009054906101000a900473ffffffffffffffffffffffffffffffffffffffff1673ffffffffffffffffffffffffffffffffffffffff1663bdc130c26040518163ffffffff1660e01b8152600401600060405180830381865afa158015610621573d6000803e3d6000fd5b505050506040513d6000823e3d601f19601f8201168201806040525081019061064a9190611d7c565b516106559190611dc5565b8151811061066657610665611df9565b5b60200260200101516040518463ffffffff1660e01b815260040161068c93929190611e28565b600060405180830381600087803b1580156106a657600080fd5b505af11580156106ba573d6000803e3d6000fd5b5050505043600560003373ffffffffffffffffffffffffffffffffffffffff1673ffffffffffffffffffffffffffffffffffffffff16815260200190815260200160002060020181905550565b600260009054906101000a900473ffffffffffffffffffffffffffffffffffffffff1681565b6000600354905090565b60008054906101000a900473ffffffffffffffffffffffffffffffffffffffff1681565b3373ffffffffffffffffffffffffffffffffffffffff16600560003373ffffffffffffffffffffffffffffffffffffffff1673ffffffffffffffffffffffffffffffffffffffff16815260200190815260200160002060010160009054906101000a900473ffffffffffffffffffffffffffffffffffffffff1673ffffffffffffffffffffffffffffffffffffffff161461082b576040517f08c379a000000000000000000000000000000000000000000000000000000000815260040161082290611af8565b60405180910390fd5b600454600560003373ffffffffffffffffffffffffffffffffffffffff1673ffffffffffffffffffffffffffffffffffffffff1681526020019081526020016000206002015461087b9190611bd9565b4310156108bd576040517f08c379a00000000000000000000000000000000000000000000000000000000081526004016108b490611c7f565b60405180910390fd5b600160009054906101000a900473ffffffffffffffffffffffffffffffffffffffff1673ffffffffffffffffffffffffffffffffffffffff166323b872dd3033600160009054906101000a900473ffffffffffffffffffffffffffffffffffffffff1673ffffffffffffffffffffffffffffffffffffffff1663bdc130c26040518163ffffffff1660e01b8152600401600060405180830381865afa15801561096a573d6000803e3d6000fd5b505050506040513d6000823e3d601f19601f820116820180604052508101906109939190611d7c565b60018060009054906101000a900473ffffffffffffffffffffffffffffffffffffffff1673ffffffffffffffffffffffffffffffffffffffff1663bdc130c26040518163ffffffff1660e01b8152600401600060405180830381865afa158015610a01573d6000803e3d6000fd5b505050506040513d6000823e3d601f19601f82011682018060405250810190610a2a9190611d7c565b51610a359190611dc5565b81518110610a4657610a45611df9565b5b60200260200101516040518463ffffffff1660e01b8152600401610a6c93929190611e28565b600060405180830381600087803b158015610a8657600080fd5b505af1158015610a9a573d6000803e3d6000fd5b50505050600260009054906101000a900473ffffffffffffffffffffffffffffffffffffffff1673ffffffffffffffffffffffffffffffffffffffff1663a9059cbb33600560003373ffffffffffffffffffffffffffffffffffffffff1673ffffffffffffffffffffffffffffffffffffffff168152602001908152602001600020600001546040518363ffffffff1660e01b8152600401610b3d929190611e5f565b6020604051808303816000875af1158015610b5c573d6000803e3d6000fd5b505050506040513d601f19601f82011682018060405250810190610b809190611eb4565b50600560003373ffffffffffffffffffffffffffffffffffffffff1673ffffffffffffffffffffffffffffffffffffffff1681526020019081526020016000206000808201600090556001820160006101000a81549073ffffffffffffffffffffffffffffffffffffffff021916905560028201600090556003820160006101000a81549060ff02191690555050565b600081600260009054906101000a900473ffffffffffffffffffffffffffffffffffffffff1673ffffffffffffffffffffffffffffffffffffffff166370a08231336040518263ffffffff1660e01b8152600401610c6e919061169a565b602060405180830381865afa158015610c8b573d6000803e3d6000fd5b505050506040513d601f19601f82011682018060405250810190610caf9190611ee1565b1015610cf0576040517f08c379a0000000000000000000000000000000000000000000000000000000008152600401610ce790611f80565b60405180910390fd5b6000600560003373ffffffffffffffffffffffffffffffffffffffff1673ffffffffffffffffffffffffffffffffffffffff168152602001908152602001600020600001540361108357600354821015610ee357600260009054906101000a900473ffffffffffffffffffffffffffffffffffffffff1673ffffffffffffffffffffffffffffffffffffffff166323b872dd3330856040518463ffffffff1660e01b8152600401610da393929190611e28565b6020604051808303816000875af1158015610dc2573d6000803e3d6000fd5b505050506040513d601f19601f82011682018060405250810190610de69190611eb4565b5060405180608001604052808381526020013373ffffffffffffffffffffffffffffffffffffffff16815260200143815260200160001515815250600560003373ffffffffffffffffffffffffffffffffffffffff1673ffffffffffffffffffffffffffffffffffffffff1681526020019081526020016000206000820151816000015560208201518160010160006101000a81548173ffffffffffffffffffffffffffffffffffffffff021916908373ffffffffffffffffffffffffffffffffffffffff1602179055506040820151816002015560608201518160030160006101000a81548160ff02191690831515021790555090505061107e565b600260009054906101000a900473ffffffffffffffffffffffffffffffffffffffff1673ffffffffffffffffffffffffffffffffffffffff166323b872dd3330856040518463ffffffff1660e01b8152600401610f4293929190611e28565b6020604051808303816000875af1158015610f61573d6000803e3d6000fd5b505050506040513d601f19601f82011682018060405250810190610f859190611eb4565b5060405180608001604052808381526020013373ffffffffffffffffffffffffffffffffffffffff16815260200143815260200160011515815250600560003373ffffffffffffffffffffffffffffffffffffffff1673ffffffffffffffffffffffffffffffffffffffff1681526020019081526020016000206000820151816000015560208201518160010160006101000a81548173ffffffffffffffffffffffffffffffffffffffff021916908373ffffffffffffffffffffffffffffffffffffffff1602179055506040820151816002015560608201518160030160006101000a81548160ff0219169083151502179055509050505b61126e565b81600560003373ffffffffffffffffffffffffffffffffffffffff1673ffffffffffffffffffffffffffffffffffffffff16815260200190815260200160002060000160008282546110d59190611bd9565b92505081905550600260009054906101000a900473ffffffffffffffffffffffffffffffffffffffff1673ffffffffffffffffffffffffffffffffffffffff166323b872dd3330856040518463ffffffff1660e01b815260040161113b93929190611e28565b6020604051808303816000875af115801561115a573d6000803e3d6000fd5b505050506040513d601f19601f8201168201806040525081019061117e9190611eb4565b50600354600560003373ffffffffffffffffffffffffffffffffffffffff1673ffffffffffffffffffffffffffffffffffffffff168152602001908152602001600020600001541061126d576001600560003373ffffffffffffffffffffffffffffffffffffffff1673ffffffffffffffffffffffffffffffffffffffff16815260200190815260200160002060030160006101000a81548160ff02191690831515021790555043600560003373ffffffffffffffffffffffffffffffffffffffff1673ffffffffffffffffffffffffffffffffffffffff168152602001908152602001600020600201819055505b5b600560003373ffffffffffffffffffffffffffffffffffffffff1673ffffffffffffffffffffffffffffffffffffffff168152602001908152602001600020600001549050919050565b60056020528060005260406000206000915090508060000154908060010160009054906101000a900473ffffffffffffffffffffffffffffffffffffffff16908060020154908060030160009054906101000a900460ff16905084565b6000600560003373ffffffffffffffffffffffffffffffffffffffff1673ffffffffffffffffffffffffffffffffffffffff16815260200190815260200160002060020154436113659190611dc5565b905090565b3373ffffffffffffffffffffffffffffffffffffffff16600560003373ffffffffffffffffffffffffffffffffffffffff1673ffffffffffffffffffffffffffffffffffffffff16815260200190815260200160002060010160009054906101000a900473ffffffffffffffffffffffffffffffffffffffff1673ffffffffffffffffffffffffffffffffffffffff161461143a576040517f08c379a000000000000000000000000000000000000000000000000000000000815260040161143190611af8565b60405180910390fd5b600260009054906101000a900473ffffffffffffffffffffffffffffffffffffffff1673ffffffffffffffffffffffffffffffffffffffff1663a9059cbb33600560003373ffffffffffffffffffffffffffffffffffffffff1673ffffffffffffffffffffffffffffffffffffffff168152602001908152602001600020600001546040518363ffffffff1660e01b81526004016114d9929190611e5f565b6020604051808303816000875af11580156114f8573d6000803e3d6000fd5b505050506040513d601f19601f8201168201806040525081019061151c9190611eb4565b50600560003373ffffffffffffffffffffffffffffffffffffffff1673ffffffffffffffffffffffffffffffffffffffff1681526020019081526020016000206000808201600090556001820160006101000a81549073ffffffffffffffffffffffffffffffffffffffff021916905560028201600090556003820160006101000a81549060ff02191690555050565b60035481565b6000600160009054906101000a900473ffffffffffffffffffffffffffffffffffffffff1673ffffffffffffffffffffffffffffffffffffffff1663da2ed03e836040518263ffffffff1660e01b815260040161160f919061200e565b6020604051808303816000875af115801561162e573d6000803e3d6000fd5b505050506040513d601f19601f820116820180604052508101906116529190611ee1565b9050919050565b600073ffffffffffffffffffffffffffffffffffffffff82169050919050565b600061168482611659565b9050919050565b61169481611679565b82525050565b60006020820190506116af600083018461168b565b92915050565b6000819050919050565b6116c8816116b5565b82525050565b60006020820190506116e360008301846116bf565b92915050565b6000819050919050565b600061170e61170961170484611659565b6116e9565b611659565b9050919050565b6000611720826116f3565b9050919050565b600061173282611715565b9050919050565b61174281611727565b82525050565b600060208201905061175d6000830184611739565b92915050565b600061176e82611715565b9050919050565b61177e81611763565b82525050565b60006020820190506117996000830184611775565b92915050565b6000604051905090565b600080fd5b600080fd5b6117bc816116b5565b81146117c757600080fd5b50565b6000813590506117d9816117b3565b92915050565b6000602082840312156117f5576117f46117a9565b5b6000611803848285016117ca565b91505092915050565b61181581611679565b811461182057600080fd5b50565b6000813590506118328161180c565b92915050565b60006020828403121561184e5761184d6117a9565b5b600061185c84828501611823565b91505092915050565b600061187082611659565b9050919050565b61188081611865565b82525050565b60008115159050919050565b61189b81611886565b82525050565b60006080820190506118b660008301876116bf565b6118c36020830186611877565b6118d060408301856116bf565b6118dd6060830184611892565b95945050505050565b600080fd5b600080fd5b6000601f19601f8301169050919050565b7f4e487b7100000000000000000000000000000000000000000000000000000000600052604160045260246000fd5b611939826118f0565b810181811067ffffffffffffffff8211171561195857611957611901565b5b80604052505050565b600061196b61179f565b90506119778282611930565b919050565b600067ffffffffffffffff82111561199757611996611901565b5b6119a0826118f0565b9050602081019050919050565b82818337600083830152505050565b60006119cf6119ca8461197c565b611961565b9050828152602081018484840111156119eb576119ea6118eb565b5b6119f68482856119ad565b509392505050565b600082601f830112611a1357611a126118e6565b5b8135611a238482602086016119bc565b91505092915050565b600060208284031215611a4257611a416117a9565b5b600082013567ffffffffffffffff811115611a6057611a5f6117ae565b5b611a6c848285016119fe565b91505092915050565b600082825260208201905092915050565b7f596f75206172652068617665206e6f74207374616b656420616e7920746f6b6560008201527f6e00000000000000000000000000000000000000000000000000000000000000602082015250565b6000611ae2602183611a75565b9150611aed82611a86565b604082019050919050565b60006020820190508181036000830152611b1181611ad5565b9050919050565b7f596f7520646f6e2774206861766520656e6f7567682062616c616e636520746f60008201527f20636c61696d204e465400000000000000000000000000000000000000000000602082015250565b6000611b74602a83611a75565b9150611b7f82611b18565b604082019050919050565b60006020820190508181036000830152611ba381611b67565b9050919050565b7f4e487b7100000000000000000000000000000000000000000000000000000000600052601160045260246000fd5b6000611be4826116b5565b9150611bef836116b5565b9250828201905080821115611c0757611c06611baa565b5b92915050565b7f4d696e696d756d20737461636b696e672074696d65206e6f742072656163686560008201527f6400000000000000000000000000000000000000000000000000000000000000602082015250565b6000611c69602183611a75565b9150611c7482611c0d565b604082019050919050565b60006020820190508181036000830152611c9881611c5c565b9050919050565b600067ffffffffffffffff821115611cba57611cb9611901565b5b602082029050602081019050919050565b600080fd5b600081519050611cdf816117b3565b92915050565b6000611cf8611cf384611c9f565b611961565b90508083825260208201905060208402830185811115611d1b57611d1a611ccb565b5b835b81811015611d445780611d308882611cd0565b845260208401935050602081019050611d1d565b5050509392505050565b600082601f830112611d6357611d626118e6565b5b8151611d73848260208601611ce5565b91505092915050565b600060208284031215611d9257611d916117a9565b5b600082015167ffffffffffffffff811115611db057611daf6117ae565b5b611dbc84828501611d4e565b91505092915050565b6000611dd0826116b5565b9150611ddb836116b5565b9250828203905081811115611df357611df2611baa565b5b92915050565b7f4e487b7100000000000000000000000000000000000000000000000000000000600052603260045260246000fd5b6000606082019050611e3d600083018661168b565b611e4a602083018561168b565b611e5760408301846116bf565b949350505050565b6000604082019050611e74600083018561168b565b611e8160208301846116bf565b9392505050565b611e9181611886565b8114611e9c57600080fd5b50565b600081519050611eae81611e88565b92915050565b600060208284031215611eca57611ec96117a9565b5b6000611ed884828501611e9f565b91505092915050565b600060208284031215611ef757611ef66117a9565b5b6000611f0584828501611cd0565b91505092915050565b7f596f7520646f6e2774206861766520656e6f7567682062616c616e636520746f60008201527f206d616b652061207472616e73616374696f6e00000000000000000000000000602082015250565b6000611f6a603383611a75565b9150611f7582611f0e565b604082019050919050565b60006020820190508181036000830152611f9981611f5d565b9050919050565b600081519050919050565b60005b83811015611fc9578082015181840152602081019050611fae565b60008484015250505050565b6000611fe082611fa0565b611fea8185611a75565b9350611ffa818560208601611fab565b612003816118f0565b840191505092915050565b600060208201905081810360008301526120288184611fd5565b90509291505056fea26469706673582212204da9f7626d9b2ceb05bd93ab30cf1fabd452b576e25dc485798f40d5465fed4564736f6c63430008120033",
  "linkReferences": {},
  "deployedLinkReferences": {}
}