{
  "_format": "hh-sol-artifact-1",
  "contractName": "StakingTokenPool",
  "sourceName": "contracts/StakingTokenPool.sol",
  "abi": [
    {
      "inputs": [
        {
          "internalType": "address",
          "name": "_wibuNFTAddress",
          "type": "address"
        },
        {
          "internalType": "address",
          "name": "_wibuTokenAddress",
          "type": "address"
        }
      ],
      "stateMutability": "nonpayable",
      "type": "constructor"
    },
    {
      "anonymous": false,
      "inputs": [
        {
          "indexed": true,
          "internalType": "uint256",
          "name": "amount",
          "type": "uint256"
        },
        {
          "indexed": false,
          "internalType": "address",
          "name": "owner",
          "type": "address"
        },
        {
          "indexed": false,
          "internalType": "uint256",
          "name": "stackingTime",
          "type": "uint256"
        }
      ],
      "name": "TokenStackedSuccess",
      "type": "event"
    },
    {
      "inputs": [
        {
          "internalType": "uint256",
          "name": "_amount",
          "type": "uint256"
        }
      ],
      "name": "StackingToken",
      "outputs": [
        {
          "internalType": "uint256",
          "name": "",
          "type": "uint256"
        }
      ],
      "stateMutability": "nonpayable",
      "type": "function"
    },
    {
      "inputs": [],
      "name": "claimReward",
      "outputs": [],
      "stateMutability": "nonpayable",
      "type": "function"
    },
    {
      "inputs": [],
      "name": "get_owner",
      "outputs": [
        {
          "internalType": "address",
          "name": "",
          "type": "address"
        }
      ],
      "stateMutability": "view",
      "type": "function"
    },
    {
      "inputs": [],
      "name": "owner",
      "outputs": [
        {
          "internalType": "address",
          "name": "",
          "type": "address"
        }
      ],
      "stateMutability": "view",
      "type": "function"
    },
    {
      "inputs": [
        {
          "internalType": "address",
          "name": "",
          "type": "address"
        }
      ],
      "name": "stakings",
      "outputs": [
        {
          "internalType": "uint256",
          "name": "amount",
          "type": "uint256"
        },
        {
          "internalType": "address payable",
          "name": "owner",
          "type": "address"
        },
        {
          "internalType": "uint256",
          "name": "stackingTime",
          "type": "uint256"
        }
      ],
      "stateMutability": "view",
      "type": "function"
    },
    {
      "inputs": [],
      "name": "wibuNFT",
      "outputs": [
        {
          "internalType": "contract WibuNFT",
          "name": "",
          "type": "address"
        }
      ],
      "stateMutability": "view",
      "type": "function"
    },
    {
      "inputs": [],
      "name": "wibuToken",
      "outputs": [
        {
          "internalType": "contract WibuToken",
          "name": "",
          "type": "address"
        }
      ],
      "stateMutability": "view",
      "type": "function"
    }
  ],
  "bytecode": "0x60806040523480156200001157600080fd5b50604051620011413803806200114183398181016040528101906200003791906200016b565b336000806101000a81548173ffffffffffffffffffffffffffffffffffffffff021916908373ffffffffffffffffffffffffffffffffffffffff16021790555081600160006101000a81548173ffffffffffffffffffffffffffffffffffffffff021916908373ffffffffffffffffffffffffffffffffffffffff16021790555080600260006101000a81548173ffffffffffffffffffffffffffffffffffffffff021916908373ffffffffffffffffffffffffffffffffffffffff1602179055505050620001b2565b600080fd5b600073ffffffffffffffffffffffffffffffffffffffff82169050919050565b6000620001338262000106565b9050919050565b620001458162000126565b81146200015157600080fd5b50565b60008151905062000165816200013a565b92915050565b6000806040838503121562000185576200018462000101565b5b6000620001958582860162000154565b9250506020620001a88582860162000154565b9150509250929050565b610f7f80620001c26000396000f3fe608060405234801561001057600080fd5b506004361061007d5760003560e01c80638da5cb5b1161005b5780638da5cb5b146100dc578063b88a802f146100fa578063b9da4f2a14610104578063dc6e13e1146101345761007d565b80630ac298dc1461008257806354596af9146100a05780637be3251b146100be575b600080fd5b61008a610166565b604051610097919061081e565b60405180910390f35b6100a861018f565b6040516100b59190610898565b60405180910390f35b6100c66101b5565b6040516100d391906108d4565b60405180910390f35b6100e46101db565b6040516100f1919061081e565b60405180910390f35b6101026101ff565b005b61011e60048036038101906101199190610939565b610500565b60405161012b9190610975565b60405180910390f35b61014e600480360381019061014991906109bc565b610793565b60405161015d93929190610a0a565b60405180910390f35b60008060009054906101000a900473ffffffffffffffffffffffffffffffffffffffff16905090565b600160009054906101000a900473ffffffffffffffffffffffffffffffffffffffff1681565b600260009054906101000a900473ffffffffffffffffffffffffffffffffffffffff1681565b60008054906101000a900473ffffffffffffffffffffffffffffffffffffffff1681565b6001600360003373ffffffffffffffffffffffffffffffffffffffff1673ffffffffffffffffffffffffffffffffffffffff1681526020019081526020016000206002015461024e9190610a70565b431015610290576040517f08c379a000000000000000000000000000000000000000000000000000000000815260040161028790610b27565b60405180910390fd5b600260009054906101000a900473ffffffffffffffffffffffffffffffffffffffff1673ffffffffffffffffffffffffffffffffffffffff1663a9059cbb3360646040518363ffffffff1660e01b81526004016102ee929190610b82565b6020604051808303816000875af115801561030d573d6000803e3d6000fd5b505050506040513d601f19601f820116820180604052508101906103319190610be3565b506000600160009054906101000a900473ffffffffffffffffffffffffffffffffffffffff1673ffffffffffffffffffffffffffffffffffffffff1663bdc130c26040518163ffffffff1660e01b8152600401600060405180830381865afa1580156103a1573d6000803e3d6000fd5b505050506040513d6000823e3d601f19601f820116820180604052508101906103ca9190610d7e565b9050600160009054906101000a900473ffffffffffffffffffffffffffffffffffffffff1673ffffffffffffffffffffffffffffffffffffffff166323b872dd3033846001865161041b9190610dc7565b8151811061042c5761042b610dfb565b5b60200260200101516040518463ffffffff1660e01b815260040161045293929190610e2a565b600060405180830381600087803b15801561046c57600080fd5b505af1158015610480573d6000803e3d6000fd5b50505050600360003373ffffffffffffffffffffffffffffffffffffffff1673ffffffffffffffffffffffffffffffffffffffff1681526020019081526020016000206000808201600090556001820160006101000a81549073ffffffffffffffffffffffffffffffffffffffff02191690556002820160009055505050565b600081600260009054906101000a900473ffffffffffffffffffffffffffffffffffffffff1673ffffffffffffffffffffffffffffffffffffffff166370a08231336040518263ffffffff1660e01b815260040161055e919061081e565b602060405180830381865afa15801561057b573d6000803e3d6000fd5b505050506040513d601f19601f8201168201806040525081019061059f9190610e61565b10156105e0576040517f08c379a00000000000000000000000000000000000000000000000000000000081526004016105d790610f00565b60405180910390fd5b600260009054906101000a900473ffffffffffffffffffffffffffffffffffffffff1673ffffffffffffffffffffffffffffffffffffffff166323b872dd3330856040518463ffffffff1660e01b815260040161063f93929190610e2a565b6020604051808303816000875af115801561065e573d6000803e3d6000fd5b505050506040513d601f19601f820116820180604052508101906106829190610be3565b5060405180606001604052808381526020013373ffffffffffffffffffffffffffffffffffffffff16815260200143815250600360003373ffffffffffffffffffffffffffffffffffffffff1673ffffffffffffffffffffffffffffffffffffffff1681526020019081526020016000206000820151816000015560208201518160010160006101000a81548173ffffffffffffffffffffffffffffffffffffffff021916908373ffffffffffffffffffffffffffffffffffffffff16021790555060408201518160020155905050817fa7cc93ad92b4f5cc45c1f7e581b2a17f1c240bbffddb41ca29deff66655c9a693343604051610783929190610f20565b60405180910390a2439050919050565b60036020528060005260406000206000915090508060000154908060010160009054906101000a900473ffffffffffffffffffffffffffffffffffffffff16908060020154905083565b600073ffffffffffffffffffffffffffffffffffffffff82169050919050565b6000610808826107dd565b9050919050565b610818816107fd565b82525050565b6000602082019050610833600083018461080f565b92915050565b6000819050919050565b600061085e610859610854846107dd565b610839565b6107dd565b9050919050565b600061087082610843565b9050919050565b600061088282610865565b9050919050565b61089281610877565b82525050565b60006020820190506108ad6000830184610889565b92915050565b60006108be82610865565b9050919050565b6108ce816108b3565b82525050565b60006020820190506108e960008301846108c5565b92915050565b6000604051905090565b600080fd5b600080fd5b6000819050919050565b61091681610903565b811461092157600080fd5b50565b6000813590506109338161090d565b92915050565b60006020828403121561094f5761094e6108f9565b5b600061095d84828501610924565b91505092915050565b61096f81610903565b82525050565b600060208201905061098a6000830184610966565b92915050565b610999816107fd565b81146109a457600080fd5b50565b6000813590506109b681610990565b92915050565b6000602082840312156109d2576109d16108f9565b5b60006109e0848285016109a7565b91505092915050565b60006109f4826107dd565b9050919050565b610a04816109e9565b82525050565b6000606082019050610a1f6000830186610966565b610a2c60208301856109fb565b610a396040830184610966565b949350505050565b7f4e487b7100000000000000000000000000000000000000000000000000000000600052601160045260246000fd5b6000610a7b82610903565b9150610a8683610903565b9250828201905080821115610a9e57610a9d610a41565b5b92915050565b600082825260208201905092915050565b7f4d696e696d756d20737461636b696e672074696d65206e6f742072656163686560008201527f6400000000000000000000000000000000000000000000000000000000000000602082015250565b6000610b11602183610aa4565b9150610b1c82610ab5565b604082019050919050565b60006020820190508181036000830152610b4081610b04565b9050919050565b6000819050919050565b6000610b6c610b67610b6284610b47565b610839565b610903565b9050919050565b610b7c81610b51565b82525050565b6000604082019050610b97600083018561080f565b610ba46020830184610b73565b9392505050565b60008115159050919050565b610bc081610bab565b8114610bcb57600080fd5b50565b600081519050610bdd81610bb7565b92915050565b600060208284031215610bf957610bf86108f9565b5b6000610c0784828501610bce565b91505092915050565b600080fd5b6000601f19601f8301169050919050565b7f4e487b7100000000000000000000000000000000000000000000000000000000600052604160045260246000fd5b610c5e82610c15565b810181811067ffffffffffffffff82111715610c7d57610c7c610c26565b5b80604052505050565b6000610c906108ef565b9050610c9c8282610c55565b919050565b600067ffffffffffffffff821115610cbc57610cbb610c26565b5b602082029050602081019050919050565b600080fd5b600081519050610ce18161090d565b92915050565b6000610cfa610cf584610ca1565b610c86565b90508083825260208201905060208402830185811115610d1d57610d1c610ccd565b5b835b81811015610d465780610d328882610cd2565b845260208401935050602081019050610d1f565b5050509392505050565b600082601f830112610d6557610d64610c10565b5b8151610d75848260208601610ce7565b91505092915050565b600060208284031215610d9457610d936108f9565b5b600082015167ffffffffffffffff811115610db257610db16108fe565b5b610dbe84828501610d50565b91505092915050565b6000610dd282610903565b9150610ddd83610903565b9250828203905081811115610df557610df4610a41565b5b92915050565b7f4e487b7100000000000000000000000000000000000000000000000000000000600052603260045260246000fd5b6000606082019050610e3f600083018661080f565b610e4c602083018561080f565b610e596040830184610966565b949350505050565b600060208284031215610e7757610e766108f9565b5b6000610e8584828501610cd2565b91505092915050565b7f596f7520646f6e2774206861766520656e6f7567682062616c616e636520746f60008201527f206d616b652061207472616e73616374696f6e00000000000000000000000000602082015250565b6000610eea603383610aa4565b9150610ef582610e8e565b604082019050919050565b60006020820190508181036000830152610f1981610edd565b9050919050565b6000604082019050610f35600083018561080f565b610f426020830184610966565b939250505056fea26469706673582212209a948ad6f6034f503068df59666906da5edf3f3879c3e46be59a803ec75fe8e664736f6c63430008120033",
  "linkReferences": {},
  "deployedLinkReferences": {}
}