{
  "_format": "hh-sol-artifact-1",
  "contractName": "StakingTokenPool",
  "sourceName": "contracts/StakingTokenPool.sol",
  "abi": [
    {
      "inputs": [
        {
          "internalType": "address",
          "name": "_wibuNFTAddress",
          "type": "address"
        },
        {
          "internalType": "address",
          "name": "_wibuTokenAddress",
          "type": "address"
        },
        {
          "internalType": "uint256",
          "name": "_standardBalance",
          "type": "uint256"
        },
        {
          "internalType": "uint256",
          "name": "_standardTime",
          "type": "uint256"
        }
      ],
      "stateMutability": "nonpayable",
      "type": "constructor"
    },
    {
      "anonymous": false,
      "inputs": [
        {
          "indexed": true,
          "internalType": "uint256",
          "name": "amount",
          "type": "uint256"
        },
        {
          "indexed": false,
          "internalType": "address",
          "name": "owner",
          "type": "address"
        },
        {
          "indexed": false,
          "internalType": "uint256",
          "name": "stackingTime",
          "type": "uint256"
        },
        {
          "indexed": false,
          "internalType": "bool",
          "name": "flag",
          "type": "bool"
        }
      ],
      "name": "TokenStackedSuccess",
      "type": "event"
    },
    {
      "inputs": [
        {
          "internalType": "uint256",
          "name": "_amount",
          "type": "uint256"
        }
      ],
      "name": "StackingToken",
      "outputs": [
        {
          "internalType": "uint256",
          "name": "",
          "type": "uint256"
        }
      ],
      "stateMutability": "nonpayable",
      "type": "function"
    },
    {
      "inputs": [],
      "name": "checkTime",
      "outputs": [
        {
          "internalType": "uint256",
          "name": "",
          "type": "uint256"
        }
      ],
      "stateMutability": "view",
      "type": "function"
    },
    {
      "inputs": [],
      "name": "claimNFT",
      "outputs": [],
      "stateMutability": "nonpayable",
      "type": "function"
    },
    {
      "inputs": [],
      "name": "claimReward",
      "outputs": [],
      "stateMutability": "nonpayable",
      "type": "function"
    },
    {
      "inputs": [],
      "name": "get_owner",
      "outputs": [
        {
          "internalType": "address",
          "name": "",
          "type": "address"
        }
      ],
      "stateMutability": "view",
      "type": "function"
    },
    {
      "inputs": [],
      "name": "get_standardBalance",
      "outputs": [
        {
          "internalType": "uint256",
          "name": "",
          "type": "uint256"
        }
      ],
      "stateMutability": "view",
      "type": "function"
    },
    {
      "inputs": [
        {
          "internalType": "string",
          "name": "_NFT_url",
          "type": "string"
        }
      ],
      "name": "mintNFT",
      "outputs": [
        {
          "internalType": "uint256",
          "name": "",
          "type": "uint256"
        }
      ],
      "stateMutability": "nonpayable",
      "type": "function"
    },
    {
      "inputs": [],
      "name": "owner",
      "outputs": [
        {
          "internalType": "address",
          "name": "",
          "type": "address"
        }
      ],
      "stateMutability": "view",
      "type": "function"
    },
    {
      "inputs": [],
      "name": "rewardToken",
      "outputs": [],
      "stateMutability": "nonpayable",
      "type": "function"
    },
    {
      "inputs": [
        {
          "internalType": "address",
          "name": "",
          "type": "address"
        }
      ],
      "name": "stakings",
      "outputs": [
        {
          "internalType": "uint256",
          "name": "amount",
          "type": "uint256"
        },
        {
          "internalType": "address payable",
          "name": "owner",
          "type": "address"
        },
        {
          "internalType": "uint256",
          "name": "stackingTime",
          "type": "uint256"
        },
        {
          "internalType": "bool",
          "name": "flag",
          "type": "bool"
        }
      ],
      "stateMutability": "view",
      "type": "function"
    },
    {
      "inputs": [],
      "name": "standardBalance",
      "outputs": [
        {
          "internalType": "uint256",
          "name": "",
          "type": "uint256"
        }
      ],
      "stateMutability": "view",
      "type": "function"
    },
    {
      "inputs": [],
      "name": "standardTime",
      "outputs": [
        {
          "internalType": "uint256",
          "name": "",
          "type": "uint256"
        }
      ],
      "stateMutability": "view",
      "type": "function"
    },
    {
      "inputs": [],
      "name": "wibuNFT",
      "outputs": [
        {
          "internalType": "contract WibuNFT",
          "name": "",
          "type": "address"
        }
      ],
      "stateMutability": "view",
      "type": "function"
    },
    {
      "inputs": [],
      "name": "wibuToken",
      "outputs": [
        {
          "internalType": "contract WibuToken",
          "name": "",
          "type": "address"
        }
      ],
      "stateMutability": "view",
      "type": "function"
    }
  ],
  "bytecode": "0x60806040523480156200001157600080fd5b50604051620021f4380380620021f48339818101604052810190620000379190620001b6565b336000806101000a81548173ffffffffffffffffffffffffffffffffffffffff021916908373ffffffffffffffffffffffffffffffffffffffff16021790555083600160006101000a81548173ffffffffffffffffffffffffffffffffffffffff021916908373ffffffffffffffffffffffffffffffffffffffff16021790555082600260006101000a81548173ffffffffffffffffffffffffffffffffffffffff021916908373ffffffffffffffffffffffffffffffffffffffff16021790555081600381905550806004819055505050505062000228565b600080fd5b600073ffffffffffffffffffffffffffffffffffffffff82169050919050565b6000620001438262000116565b9050919050565b620001558162000136565b81146200016157600080fd5b50565b60008151905062000175816200014a565b92915050565b6000819050919050565b62000190816200017b565b81146200019c57600080fd5b50565b600081519050620001b08162000185565b92915050565b60008060008060808587031215620001d357620001d262000111565b5b6000620001e38782880162000164565b9450506020620001f68782880162000164565b935050604062000209878288016200019f565b92505060606200021c878288016200019f565b91505092959194509250565b611fbc80620002386000396000f3fe608060405234801561001057600080fd5b50600436106100ea5760003560e01c8063b88a802f1161008c578063e0c6190d11610066578063e0c6190d1461021a578063f7c618c114610238578063fa818aa914610242578063fb37e88314610260576100ea565b8063b88a802f146101ad578063b9da4f2a146101b7578063dc6e13e1146101e7576100ea565b8063672756ad116100c8578063672756ad146101495780637be3251b14610153578063827d1f9d146101715780638da5cb5b1461018f576100ea565b80630ac298dc146100ef5780634f2ae3361461010d57806354596af91461012b575b600080fd5b6100f7610290565b60405161010491906115f0565b60405180910390f35b6101156102b9565b6040516101229190611624565b60405180910390f35b6101336102bf565b604051610140919061169e565b60405180910390f35b6101516102e5565b005b61015b610667565b60405161016891906116da565b60405180910390f35b61017961068d565b6040516101869190611624565b60405180910390f35b610197610697565b6040516101a491906115f0565b60405180910390f35b6101b56106bb565b005b6101d160048036038101906101cc9190611735565b610b66565b6040516101de9190611624565b60405180910390f35b61020160048036038101906101fc919061178e565b61120e565b60405161021194939291906117f7565b60405180910390f35b61022261126b565b60405161022f9190611624565b60405180910390f35b6102406112c0565b005b61024a611502565b6040516102579190611624565b60405180910390f35b61027a60048036038101906102759190611982565b611508565b6040516102879190611624565b60405180910390f35b60008060009054906101000a900473ffffffffffffffffffffffffffffffffffffffff16905090565b60045481565b600160009054906101000a900473ffffffffffffffffffffffffffffffffffffffff1681565b3373ffffffffffffffffffffffffffffffffffffffff16600560003373ffffffffffffffffffffffffffffffffffffffff1673ffffffffffffffffffffffffffffffffffffffff16815260200190815260200160002060010160009054906101000a900473ffffffffffffffffffffffffffffffffffffffff1673ffffffffffffffffffffffffffffffffffffffff16146103b5576040517f08c379a00000000000000000000000000000000000000000000000000000000081526004016103ac90611a4e565b60405180910390fd5b60011515600560003373ffffffffffffffffffffffffffffffffffffffff1673ffffffffffffffffffffffffffffffffffffffff16815260200190815260200160002060030160009054906101000a900460ff1615151461044b576040517f08c379a000000000000000000000000000000000000000000000000000000000815260040161044290611ae0565b60405180910390fd5b600454600560003373ffffffffffffffffffffffffffffffffffffffff1673ffffffffffffffffffffffffffffffffffffffff1681526020019081526020016000206002015461049b9190611b2f565b4310156104dd576040517f08c379a00000000000000000000000000000000000000000000000000000000081526004016104d490611bd5565b60405180910390fd5b600160009054906101000a900473ffffffffffffffffffffffffffffffffffffffff1673ffffffffffffffffffffffffffffffffffffffff166323b872dd3033600160009054906101000a900473ffffffffffffffffffffffffffffffffffffffff1673ffffffffffffffffffffffffffffffffffffffff1663bdc130c26040518163ffffffff1660e01b8152600401600060405180830381865afa15801561058a573d6000803e3d6000fd5b505050506040513d6000823e3d601f19601f820116820180604052508101906105b39190611cd2565b6000815181106105c6576105c5611d1b565b5b60200260200101516040518463ffffffff1660e01b81526004016105ec93929190611d4a565b600060405180830381600087803b15801561060657600080fd5b505af115801561061a573d6000803e3d6000fd5b5050505043600560003373ffffffffffffffffffffffffffffffffffffffff1673ffffffffffffffffffffffffffffffffffffffff16815260200190815260200160002060020181905550565b600260009054906101000a900473ffffffffffffffffffffffffffffffffffffffff1681565b6000600354905090565b60008054906101000a900473ffffffffffffffffffffffffffffffffffffffff1681565b3373ffffffffffffffffffffffffffffffffffffffff16600560003373ffffffffffffffffffffffffffffffffffffffff1673ffffffffffffffffffffffffffffffffffffffff16815260200190815260200160002060010160009054906101000a900473ffffffffffffffffffffffffffffffffffffffff1673ffffffffffffffffffffffffffffffffffffffff161461078b576040517f08c379a000000000000000000000000000000000000000000000000000000000815260040161078290611a4e565b60405180910390fd5b60011515600560003373ffffffffffffffffffffffffffffffffffffffff1673ffffffffffffffffffffffffffffffffffffffff16815260200190815260200160002060030160009054906101000a900460ff16151514610821576040517f08c379a000000000000000000000000000000000000000000000000000000000815260040161081890611ae0565b60405180910390fd5b600454600560003373ffffffffffffffffffffffffffffffffffffffff1673ffffffffffffffffffffffffffffffffffffffff168152602001908152602001600020600201546108719190611b2f565b4310156108b3576040517f08c379a00000000000000000000000000000000000000000000000000000000081526004016108aa90611bd5565b60405180910390fd5b600160009054906101000a900473ffffffffffffffffffffffffffffffffffffffff1673ffffffffffffffffffffffffffffffffffffffff166323b872dd3033600160009054906101000a900473ffffffffffffffffffffffffffffffffffffffff1673ffffffffffffffffffffffffffffffffffffffff1663bdc130c26040518163ffffffff1660e01b8152600401600060405180830381865afa158015610960573d6000803e3d6000fd5b505050506040513d6000823e3d601f19601f820116820180604052508101906109899190611cd2565b60008151811061099c5761099b611d1b565b5b60200260200101516040518463ffffffff1660e01b81526004016109c293929190611d4a565b600060405180830381600087803b1580156109dc57600080fd5b505af11580156109f0573d6000803e3d6000fd5b50505050600260009054906101000a900473ffffffffffffffffffffffffffffffffffffffff1673ffffffffffffffffffffffffffffffffffffffff1663a9059cbb33600560003373ffffffffffffffffffffffffffffffffffffffff1673ffffffffffffffffffffffffffffffffffffffff168152602001908152602001600020600001546040518363ffffffff1660e01b8152600401610a93929190611d81565b6020604051808303816000875af1158015610ab2573d6000803e3d6000fd5b505050506040513d601f19601f82011682018060405250810190610ad69190611dd6565b50600560003373ffffffffffffffffffffffffffffffffffffffff1673ffffffffffffffffffffffffffffffffffffffff1681526020019081526020016000206000808201600090556001820160006101000a81549073ffffffffffffffffffffffffffffffffffffffff021916905560028201600090556003820160006101000a81549060ff02191690555050565b600081600260009054906101000a900473ffffffffffffffffffffffffffffffffffffffff1673ffffffffffffffffffffffffffffffffffffffff166370a08231336040518263ffffffff1660e01b8152600401610bc491906115f0565b602060405180830381865afa158015610be1573d6000803e3d6000fd5b505050506040513d601f19601f82011682018060405250810190610c059190611e03565b1015610c46576040517f08c379a0000000000000000000000000000000000000000000000000000000008152600401610c3d90611ea2565b60405180910390fd5b6000600560003373ffffffffffffffffffffffffffffffffffffffff1673ffffffffffffffffffffffffffffffffffffffff1681526020019081526020016000206000015403610fd957600354821015610e3957600260009054906101000a900473ffffffffffffffffffffffffffffffffffffffff1673ffffffffffffffffffffffffffffffffffffffff166323b872dd3330856040518463ffffffff1660e01b8152600401610cf993929190611d4a565b6020604051808303816000875af1158015610d18573d6000803e3d6000fd5b505050506040513d601f19601f82011682018060405250810190610d3c9190611dd6565b5060405180608001604052808381526020013373ffffffffffffffffffffffffffffffffffffffff16815260200143815260200160001515815250600560003373ffffffffffffffffffffffffffffffffffffffff1673ffffffffffffffffffffffffffffffffffffffff1681526020019081526020016000206000820151816000015560208201518160010160006101000a81548173ffffffffffffffffffffffffffffffffffffffff021916908373ffffffffffffffffffffffffffffffffffffffff1602179055506040820151816002015560608201518160030160006101000a81548160ff021916908315150217905550905050610fd4565b600260009054906101000a900473ffffffffffffffffffffffffffffffffffffffff1673ffffffffffffffffffffffffffffffffffffffff166323b872dd3330856040518463ffffffff1660e01b8152600401610e9893929190611d4a565b6020604051808303816000875af1158015610eb7573d6000803e3d6000fd5b505050506040513d601f19601f82011682018060405250810190610edb9190611dd6565b5060405180608001604052808381526020013373ffffffffffffffffffffffffffffffffffffffff16815260200143815260200160011515815250600560003373ffffffffffffffffffffffffffffffffffffffff1673ffffffffffffffffffffffffffffffffffffffff1681526020019081526020016000206000820151816000015560208201518160010160006101000a81548173ffffffffffffffffffffffffffffffffffffffff021916908373ffffffffffffffffffffffffffffffffffffffff1602179055506040820151816002015560608201518160030160006101000a81548160ff0219169083151502179055509050505b6111c4565b81600560003373ffffffffffffffffffffffffffffffffffffffff1673ffffffffffffffffffffffffffffffffffffffff168152602001908152602001600020600001600082825461102b9190611b2f565b92505081905550600260009054906101000a900473ffffffffffffffffffffffffffffffffffffffff1673ffffffffffffffffffffffffffffffffffffffff166323b872dd3330856040518463ffffffff1660e01b815260040161109193929190611d4a565b6020604051808303816000875af11580156110b0573d6000803e3d6000fd5b505050506040513d601f19601f820116820180604052508101906110d49190611dd6565b50600354600560003373ffffffffffffffffffffffffffffffffffffffff1673ffffffffffffffffffffffffffffffffffffffff16815260200190815260200160002060000154106111c3576001600560003373ffffffffffffffffffffffffffffffffffffffff1673ffffffffffffffffffffffffffffffffffffffff16815260200190815260200160002060030160006101000a81548160ff02191690831515021790555043600560003373ffffffffffffffffffffffffffffffffffffffff1673ffffffffffffffffffffffffffffffffffffffff168152602001908152602001600020600201819055505b5b600560003373ffffffffffffffffffffffffffffffffffffffff1673ffffffffffffffffffffffffffffffffffffffff168152602001908152602001600020600001549050919050565b60056020528060005260406000206000915090508060000154908060010160009054906101000a900473ffffffffffffffffffffffffffffffffffffffff16908060020154908060030160009054906101000a900460ff16905084565b6000600560003373ffffffffffffffffffffffffffffffffffffffff1673ffffffffffffffffffffffffffffffffffffffff16815260200190815260200160002060020154436112bb9190611ec2565b905090565b3373ffffffffffffffffffffffffffffffffffffffff16600560003373ffffffffffffffffffffffffffffffffffffffff1673ffffffffffffffffffffffffffffffffffffffff16815260200190815260200160002060010160009054906101000a900473ffffffffffffffffffffffffffffffffffffffff1673ffffffffffffffffffffffffffffffffffffffff1614611390576040517f08c379a000000000000000000000000000000000000000000000000000000000815260040161138790611a4e565b60405180910390fd5b600260009054906101000a900473ffffffffffffffffffffffffffffffffffffffff1673ffffffffffffffffffffffffffffffffffffffff1663a9059cbb33600560003373ffffffffffffffffffffffffffffffffffffffff1673ffffffffffffffffffffffffffffffffffffffff168152602001908152602001600020600001546040518363ffffffff1660e01b815260040161142f929190611d81565b6020604051808303816000875af115801561144e573d6000803e3d6000fd5b505050506040513d601f19601f820116820180604052508101906114729190611dd6565b50600560003373ffffffffffffffffffffffffffffffffffffffff1673ffffffffffffffffffffffffffffffffffffffff1681526020019081526020016000206000808201600090556001820160006101000a81549073ffffffffffffffffffffffffffffffffffffffff021916905560028201600090556003820160006101000a81549060ff02191690555050565b60035481565b6000600160009054906101000a900473ffffffffffffffffffffffffffffffffffffffff1673ffffffffffffffffffffffffffffffffffffffff1663da2ed03e836040518263ffffffff1660e01b81526004016115659190611f64565b6020604051808303816000875af1158015611584573d6000803e3d6000fd5b505050506040513d601f19601f820116820180604052508101906115a89190611e03565b9050919050565b600073ffffffffffffffffffffffffffffffffffffffff82169050919050565b60006115da826115af565b9050919050565b6115ea816115cf565b82525050565b600060208201905061160560008301846115e1565b92915050565b6000819050919050565b61161e8161160b565b82525050565b60006020820190506116396000830184611615565b92915050565b6000819050919050565b600061166461165f61165a846115af565b61163f565b6115af565b9050919050565b600061167682611649565b9050919050565b60006116888261166b565b9050919050565b6116988161167d565b82525050565b60006020820190506116b3600083018461168f565b92915050565b60006116c48261166b565b9050919050565b6116d4816116b9565b82525050565b60006020820190506116ef60008301846116cb565b92915050565b6000604051905090565b600080fd5b600080fd5b6117128161160b565b811461171d57600080fd5b50565b60008135905061172f81611709565b92915050565b60006020828403121561174b5761174a6116ff565b5b600061175984828501611720565b91505092915050565b61176b816115cf565b811461177657600080fd5b50565b60008135905061178881611762565b92915050565b6000602082840312156117a4576117a36116ff565b5b60006117b284828501611779565b91505092915050565b60006117c6826115af565b9050919050565b6117d6816117bb565b82525050565b60008115159050919050565b6117f1816117dc565b82525050565b600060808201905061180c6000830187611615565b61181960208301866117cd565b6118266040830185611615565b61183360608301846117e8565b95945050505050565b600080fd5b600080fd5b6000601f19601f8301169050919050565b7f4e487b7100000000000000000000000000000000000000000000000000000000600052604160045260246000fd5b61188f82611846565b810181811067ffffffffffffffff821117156118ae576118ad611857565b5b80604052505050565b60006118c16116f5565b90506118cd8282611886565b919050565b600067ffffffffffffffff8211156118ed576118ec611857565b5b6118f682611846565b9050602081019050919050565b82818337600083830152505050565b6000611925611920846118d2565b6118b7565b90508281526020810184848401111561194157611940611841565b5b61194c848285611903565b509392505050565b600082601f8301126119695761196861183c565b5b8135611979848260208601611912565b91505092915050565b600060208284031215611998576119976116ff565b5b600082013567ffffffffffffffff8111156119b6576119b5611704565b5b6119c284828501611954565b91505092915050565b600082825260208201905092915050565b7f596f75206172652068617665206e6f74207374616b656420616e7920746f6b6560008201527f6e00000000000000000000000000000000000000000000000000000000000000602082015250565b6000611a386021836119cb565b9150611a43826119dc565b604082019050919050565b60006020820190508181036000830152611a6781611a2b565b9050919050565b7f596f7520646f6e2774206861766520656e6f7567682062616c616e636520746f60008201527f20636c61696d204e465400000000000000000000000000000000000000000000602082015250565b6000611aca602a836119cb565b9150611ad582611a6e565b604082019050919050565b60006020820190508181036000830152611af981611abd565b9050919050565b7f4e487b7100000000000000000000000000000000000000000000000000000000600052601160045260246000fd5b6000611b3a8261160b565b9150611b458361160b565b9250828201905080821115611b5d57611b5c611b00565b5b92915050565b7f4d696e696d756d20737461636b696e672074696d65206e6f742072656163686560008201527f6400000000000000000000000000000000000000000000000000000000000000602082015250565b6000611bbf6021836119cb565b9150611bca82611b63565b604082019050919050565b60006020820190508181036000830152611bee81611bb2565b9050919050565b600067ffffffffffffffff821115611c1057611c0f611857565b5b602082029050602081019050919050565b600080fd5b600081519050611c3581611709565b92915050565b6000611c4e611c4984611bf5565b6118b7565b90508083825260208201905060208402830185811115611c7157611c70611c21565b5b835b81811015611c9a5780611c868882611c26565b845260208401935050602081019050611c73565b5050509392505050565b600082601f830112611cb957611cb861183c565b5b8151611cc9848260208601611c3b565b91505092915050565b600060208284031215611ce857611ce76116ff565b5b600082015167ffffffffffffffff811115611d0657611d05611704565b5b611d1284828501611ca4565b91505092915050565b7f4e487b7100000000000000000000000000000000000000000000000000000000600052603260045260246000fd5b6000606082019050611d5f60008301866115e1565b611d6c60208301856115e1565b611d796040830184611615565b949350505050565b6000604082019050611d9660008301856115e1565b611da36020830184611615565b9392505050565b611db3816117dc565b8114611dbe57600080fd5b50565b600081519050611dd081611daa565b92915050565b600060208284031215611dec57611deb6116ff565b5b6000611dfa84828501611dc1565b91505092915050565b600060208284031215611e1957611e186116ff565b5b6000611e2784828501611c26565b91505092915050565b7f596f7520646f6e2774206861766520656e6f7567682062616c616e636520746f60008201527f206d616b652061207472616e73616374696f6e00000000000000000000000000602082015250565b6000611e8c6033836119cb565b9150611e9782611e30565b604082019050919050565b60006020820190508181036000830152611ebb81611e7f565b9050919050565b6000611ecd8261160b565b9150611ed88361160b565b9250828203905081811115611ef057611eef611b00565b5b92915050565b600081519050919050565b60005b83811015611f1f578082015181840152602081019050611f04565b60008484015250505050565b6000611f3682611ef6565b611f4081856119cb565b9350611f50818560208601611f01565b611f5981611846565b840191505092915050565b60006020820190508181036000830152611f7e8184611f2b565b90509291505056fea2646970667358221220176e7d4ac65dba84118cc605006a3369b0ed18a418f4074d8e5f8a561f1af56064736f6c63430008120033",
  "linkReferences": {},
  "deployedLinkReferences": {}
}