{
  "_format": "hh-sol-artifact-1",
  "contractName": "StackingNFTPool",
  "sourceName": "contracts/StackingNFTPool.sol",
  "abi": [
    {
      "inputs": [
        {
          "internalType": "address",
          "name": "_wibuNFTAddress",
          "type": "address"
        },
        {
          "internalType": "address",
          "name": "_wibuTokenAddress",
          "type": "address"
        }
      ],
      "stateMutability": "nonpayable",
      "type": "constructor"
    },
    {
      "anonymous": false,
      "inputs": [
        {
          "indexed": true,
          "internalType": "uint256",
          "name": "nftId",
          "type": "uint256"
        },
        {
          "indexed": false,
          "internalType": "address",
          "name": "owner",
          "type": "address"
        },
        {
          "indexed": false,
          "internalType": "uint256",
          "name": "stackingTime",
          "type": "uint256"
        }
      ],
      "name": "NFTStackedSuccess",
      "type": "event"
    },
    {
      "inputs": [
        {
          "internalType": "uint256",
          "name": "_nftId",
          "type": "uint256"
        }
      ],
      "name": "checkTime",
      "outputs": [
        {
          "internalType": "uint256",
          "name": "",
          "type": "uint256"
        }
      ],
      "stateMutability": "view",
      "type": "function"
    },
    {
      "inputs": [
        {
          "internalType": "uint256",
          "name": "_nftId",
          "type": "uint256"
        }
      ],
      "name": "claimReward",
      "outputs": [],
      "stateMutability": "nonpayable",
      "type": "function"
    },
    {
      "inputs": [],
      "name": "get_owner",
      "outputs": [
        {
          "internalType": "address",
          "name": "",
          "type": "address"
        }
      ],
      "stateMutability": "view",
      "type": "function"
    },
    {
      "inputs": [],
      "name": "owner",
      "outputs": [
        {
          "internalType": "address",
          "name": "",
          "type": "address"
        }
      ],
      "stateMutability": "view",
      "type": "function"
    },
    {
      "inputs": [
        {
          "internalType": "uint256",
          "name": "_nftId",
          "type": "uint256"
        }
      ],
      "name": "stackNFT",
      "outputs": [
        {
          "internalType": "uint256",
          "name": "",
          "type": "uint256"
        }
      ],
      "stateMutability": "nonpayable",
      "type": "function"
    },
    {
      "inputs": [
        {
          "internalType": "uint256",
          "name": "",
          "type": "uint256"
        }
      ],
      "name": "stackings",
      "outputs": [
        {
          "internalType": "uint256",
          "name": "nftId",
          "type": "uint256"
        },
        {
          "internalType": "address payable",
          "name": "owner",
          "type": "address"
        },
        {
          "internalType": "uint256",
          "name": "stackingTime",
          "type": "uint256"
        }
      ],
      "stateMutability": "view",
      "type": "function"
    },
    {
      "inputs": [],
      "name": "totalNFTs",
      "outputs": [
        {
          "internalType": "uint256",
          "name": "",
          "type": "uint256"
        }
      ],
      "stateMutability": "view",
      "type": "function"
    },
    {
      "inputs": [],
      "name": "wibuNFT",
      "outputs": [
        {
          "internalType": "contract WibuNFT",
          "name": "",
          "type": "address"
        }
      ],
      "stateMutability": "view",
      "type": "function"
    },
    {
      "inputs": [],
      "name": "wibuToken",
      "outputs": [
        {
          "internalType": "contract WibuToken",
          "name": "",
          "type": "address"
        }
      ],
      "stateMutability": "view",
      "type": "function"
    }
  ],
  "bytecode": "0x60806040523480156200001157600080fd5b506040516200110b3803806200110b83398181016040528101906200003791906200016b565b336000806101000a81548173ffffffffffffffffffffffffffffffffffffffff021916908373ffffffffffffffffffffffffffffffffffffffff16021790555081600260006101000a81548173ffffffffffffffffffffffffffffffffffffffff021916908373ffffffffffffffffffffffffffffffffffffffff16021790555080600360006101000a81548173ffffffffffffffffffffffffffffffffffffffff021916908373ffffffffffffffffffffffffffffffffffffffff1602179055505050620001b2565b600080fd5b600073ffffffffffffffffffffffffffffffffffffffff82169050919050565b6000620001338262000106565b9050919050565b620001458162000126565b81146200015157600080fd5b50565b60008151905062000165816200013a565b92915050565b6000806040838503121562000185576200018462000101565b5b6000620001958582860162000154565b9250506020620001a88582860162000154565b9150509250929050565b610f4980620001c26000396000f3fe608060405234801561001057600080fd5b50600436106100935760003560e01c80637be3251b116100665780637be3251b1461012257806383a9cd54146101405780638da5cb5b14610170578063ae169a501461018e578063f63fd338146101aa57610093565b80630ac298dc146100985780630d0e96da146100b657806354596af9146100d457806361841cd6146100f2575b600080fd5b6100a06101dc565b6040516100ad919061082e565b60405180910390f35b6100be610205565b6040516100cb9190610862565b60405180910390f35b6100dc61020b565b6040516100e991906108dc565b60405180910390f35b61010c60048036038101906101079190610928565b610231565b6040516101199190610862565b60405180910390f35b61012a610251565b6040516101379190610976565b60405180910390f35b61015a60048036038101906101559190610928565b610277565b6040516101679190610862565b60405180910390f35b61017861050f565b604051610185919061082e565b60405180910390f35b6101a860048036038101906101a39190610928565b610533565b005b6101c460048036038101906101bf9190610928565b6107a3565b6040516101d3939291906109b2565b60405180910390f35b60008060009054906101000a900473ffffffffffffffffffffffffffffffffffffffff16905090565b60015481565b600260009054906101000a900473ffffffffffffffffffffffffffffffffffffffff1681565b600060046000838152602001908152602001600020600201549050919050565b600360009054906101000a900473ffffffffffffffffffffffffffffffffffffffff1681565b60003373ffffffffffffffffffffffffffffffffffffffff16600260009054906101000a900473ffffffffffffffffffffffffffffffffffffffff1673ffffffffffffffffffffffffffffffffffffffff16636352211e846040518263ffffffff1660e01b81526004016102eb9190610862565b602060405180830381865afa158015610308573d6000803e3d6000fd5b505050506040513d601f19601f8201168201806040525081019061032c9190610a15565b73ffffffffffffffffffffffffffffffffffffffff1614610382576040517f08c379a000000000000000000000000000000000000000000000000000000000815260040161037990610ac5565b60405180910390fd5b6001600081548092919061039590610b14565b9190505550600260009054906101000a900473ffffffffffffffffffffffffffffffffffffffff1673ffffffffffffffffffffffffffffffffffffffff166323b872dd3330856040518463ffffffff1660e01b81526004016103f993929190610b5c565b600060405180830381600087803b15801561041357600080fd5b505af1158015610427573d6000803e3d6000fd5b5050505060405180606001604052808381526020013373ffffffffffffffffffffffffffffffffffffffff16815260200142815250600460008481526020019081526020016000206000820151816000015560208201518160010160006101000a81548173ffffffffffffffffffffffffffffffffffffffff021916908373ffffffffffffffffffffffffffffffffffffffff16021790555060408201518160020155905050817ffd1eacc24143ee039ebafb759bef816d1c6fd0dfa0cc8e6352da402cbcee37f733426040516104ff929190610b93565b60405180910390a2429050919050565b60008054906101000a900473ffffffffffffffffffffffffffffffffffffffff1681565b601860046000838152602001908152602001600020600201546105569190610bbc565b421015610598576040517f08c379a000000000000000000000000000000000000000000000000000000000815260040161058f90610c62565b60405180910390fd5b60006004600083815260200190815260200160002060000154036105f1576040517f08c379a00000000000000000000000000000000000000000000000000000000081526004016105e890610cce565b60405180910390fd5b600360009054906101000a900473ffffffffffffffffffffffffffffffffffffffff1673ffffffffffffffffffffffffffffffffffffffff1663a9059cbb336012600a61063e9190610e21565b61271061064b9190610e6c565b6040518363ffffffff1660e01b8152600401610668929190610b93565b6020604051808303816000875af1158015610687573d6000803e3d6000fd5b505050506040513d601f19601f820116820180604052508101906106ab9190610ee6565b50600260009054906101000a900473ffffffffffffffffffffffffffffffffffffffff1673ffffffffffffffffffffffffffffffffffffffff166323b872dd303360046000868152602001908152602001600020600001546040518463ffffffff1660e01b815260040161072193929190610b5c565b600060405180830381600087803b15801561073b57600080fd5b505af115801561074f573d6000803e3d6000fd5b50505050600460008281526020019081526020016000206000808201600090556001820160006101000a81549073ffffffffffffffffffffffffffffffffffffffff02191690556002820160009055505050565b60046020528060005260406000206000915090508060000154908060010160009054906101000a900473ffffffffffffffffffffffffffffffffffffffff16908060020154905083565b600073ffffffffffffffffffffffffffffffffffffffff82169050919050565b6000610818826107ed565b9050919050565b6108288161080d565b82525050565b6000602082019050610843600083018461081f565b92915050565b6000819050919050565b61085c81610849565b82525050565b60006020820190506108776000830184610853565b92915050565b6000819050919050565b60006108a261089d610898846107ed565b61087d565b6107ed565b9050919050565b60006108b482610887565b9050919050565b60006108c6826108a9565b9050919050565b6108d6816108bb565b82525050565b60006020820190506108f160008301846108cd565b92915050565b600080fd5b61090581610849565b811461091057600080fd5b50565b600081359050610922816108fc565b92915050565b60006020828403121561093e5761093d6108f7565b5b600061094c84828501610913565b91505092915050565b6000610960826108a9565b9050919050565b61097081610955565b82525050565b600060208201905061098b6000830184610967565b92915050565b600061099c826107ed565b9050919050565b6109ac81610991565b82525050565b60006060820190506109c76000830186610853565b6109d460208301856109a3565b6109e16040830184610853565b949350505050565b6109f28161080d565b81146109fd57600080fd5b50565b600081519050610a0f816109e9565b92915050565b600060208284031215610a2b57610a2a6108f7565b5b6000610a3984828501610a00565b91505092915050565b600082825260208201905092915050565b7f596f7520617265206e6f7420746865206f776e6572206f662074686973204e4660008201527f5400000000000000000000000000000000000000000000000000000000000000602082015250565b6000610aaf602183610a42565b9150610aba82610a53565b604082019050919050565b60006020820190508181036000830152610ade81610aa2565b9050919050565b7f4e487b7100000000000000000000000000000000000000000000000000000000600052601160045260246000fd5b6000610b1f82610849565b91507fffffffffffffffffffffffffffffffffffffffffffffffffffffffffffffffff8203610b5157610b50610ae5565b5b600182019050919050565b6000606082019050610b71600083018661081f565b610b7e602083018561081f565b610b8b6040830184610853565b949350505050565b6000604082019050610ba8600083018561081f565b610bb56020830184610853565b9392505050565b6000610bc782610849565b9150610bd283610849565b9250828201905080821115610bea57610be9610ae5565b5b92915050565b7f4d696e696d756d20737461636b696e672074696d65206e6f742072656163686560008201527f6400000000000000000000000000000000000000000000000000000000000000602082015250565b6000610c4c602183610a42565b9150610c5782610bf0565b604082019050919050565b60006020820190508181036000830152610c7b81610c3f565b9050919050565b7f596f752068617665206e6f7420737461636b656420616e79204e465400000000600082015250565b6000610cb8601c83610a42565b9150610cc382610c82565b602082019050919050565b60006020820190508181036000830152610ce781610cab565b9050919050565b60008160011c9050919050565b6000808291508390505b6001851115610d4557808604811115610d2157610d20610ae5565b5b6001851615610d305780820291505b8081029050610d3e85610cee565b9450610d05565b94509492505050565b600082610d5e5760019050610e1a565b81610d6c5760009050610e1a565b8160018114610d825760028114610d8c57610dbb565b6001915050610e1a565b60ff841115610d9e57610d9d610ae5565b5b8360020a915084821115610db557610db4610ae5565b5b50610e1a565b5060208310610133831016604e8410600b8410161715610df05782820a905083811115610deb57610dea610ae5565b5b610e1a565b610dfd8484846001610cfb565b92509050818404811115610e1457610e13610ae5565b5b81810290505b9392505050565b6000610e2c82610849565b9150610e3783610849565b9250610e647fffffffffffffffffffffffffffffffffffffffffffffffffffffffffffffffff8484610d4e565b905092915050565b6000610e7782610849565b9150610e8283610849565b9250828202610e9081610849565b91508282048414831517610ea757610ea6610ae5565b5b5092915050565b60008115159050919050565b610ec381610eae565b8114610ece57600080fd5b50565b600081519050610ee081610eba565b92915050565b600060208284031215610efc57610efb6108f7565b5b6000610f0a84828501610ed1565b9150509291505056fea264697066735822122049a3ff95b7449bb45e69c5acca0e6838e9b8d5f15b2efb8c5fd0ae36f5c8f01764736f6c63430008120033",
  "linkReferences": {},
  "deployedLinkReferences": {}
}