{
  "_format": "hh-sol-artifact-1",
  "contractName": "StackingTokenPool",
  "sourceName": "contracts/StackingTokenPool.sol",
  "abi": [
    {
      "inputs": [
        {
          "internalType": "address",
          "name": "_wibuNFTAddress",
          "type": "address"
        },
        {
          "internalType": "address",
          "name": "_wibuTokenAddress",
          "type": "address"
        }
      ],
      "stateMutability": "nonpayable",
      "type": "constructor"
    },
    {
      "anonymous": false,
      "inputs": [
        {
          "indexed": true,
          "internalType": "uint256",
          "name": "amount",
          "type": "uint256"
        },
        {
          "indexed": false,
          "internalType": "address",
          "name": "owner",
          "type": "address"
        },
        {
          "indexed": false,
          "internalType": "uint256",
          "name": "stackingTime",
          "type": "uint256"
        }
      ],
      "name": "TokenStackedSuccess",
      "type": "event"
    },
    {
      "inputs": [
        {
          "internalType": "uint256",
          "name": "_amount",
          "type": "uint256"
        }
      ],
      "name": "StackingToken",
      "outputs": [
        {
          "internalType": "uint256",
          "name": "",
          "type": "uint256"
        }
      ],
      "stateMutability": "nonpayable",
      "type": "function"
    },
    {
      "inputs": [],
      "name": "claimReward",
      "outputs": [],
      "stateMutability": "nonpayable",
      "type": "function"
    },
    {
      "inputs": [],
      "name": "get_owner",
      "outputs": [
        {
          "internalType": "address",
          "name": "",
          "type": "address"
        }
      ],
      "stateMutability": "view",
      "type": "function"
    },
    {
      "inputs": [],
      "name": "owner",
      "outputs": [
        {
          "internalType": "address",
          "name": "",
          "type": "address"
        }
      ],
      "stateMutability": "view",
      "type": "function"
    },
    {
      "inputs": [
        {
          "internalType": "address",
          "name": "",
          "type": "address"
        }
      ],
      "name": "stackings",
      "outputs": [
        {
          "internalType": "uint256",
          "name": "amount",
          "type": "uint256"
        },
        {
          "internalType": "address payable",
          "name": "owner",
          "type": "address"
        },
        {
          "internalType": "uint256",
          "name": "stackingTime",
          "type": "uint256"
        }
      ],
      "stateMutability": "view",
      "type": "function"
    },
    {
      "inputs": [],
      "name": "wibuNFT",
      "outputs": [
        {
          "internalType": "contract WibuNFT",
          "name": "",
          "type": "address"
        }
      ],
      "stateMutability": "view",
      "type": "function"
    },
    {
      "inputs": [],
      "name": "wibuToken",
      "outputs": [
        {
          "internalType": "contract WibuToken",
          "name": "",
          "type": "address"
        }
      ],
      "stateMutability": "view",
      "type": "function"
    }
  ],
  "bytecode": "0x60806040523480156200001157600080fd5b50604051620011413803806200114183398181016040528101906200003791906200016b565b336000806101000a81548173ffffffffffffffffffffffffffffffffffffffff021916908373ffffffffffffffffffffffffffffffffffffffff16021790555081600160006101000a81548173ffffffffffffffffffffffffffffffffffffffff021916908373ffffffffffffffffffffffffffffffffffffffff16021790555080600260006101000a81548173ffffffffffffffffffffffffffffffffffffffff021916908373ffffffffffffffffffffffffffffffffffffffff1602179055505050620001b2565b600080fd5b600073ffffffffffffffffffffffffffffffffffffffff82169050919050565b6000620001338262000106565b9050919050565b620001458162000126565b81146200015157600080fd5b50565b60008151905062000165816200013a565b92915050565b6000806040838503121562000185576200018462000101565b5b6000620001958582860162000154565b9250506020620001a88582860162000154565b9150509250929050565b610f7f80620001c26000396000f3fe608060405234801561001057600080fd5b506004361061007d5760003560e01c80637be3251b1161005b5780637be3251b146100f05780638da5cb5b1461010e578063b88a802f1461012c578063b9da4f2a146101365761007d565b80630ac298dc146100825780633ff928be146100a057806354596af9146100d2575b600080fd5b61008a610166565b604051610097919061081e565b60405180910390f35b6100ba60048036038101906100b59190610879565b61018f565b6040516100c9939291906108e0565b60405180910390f35b6100da6101d9565b6040516100e79190610976565b60405180910390f35b6100f86101ff565b60405161010591906109b2565b60405180910390f35b610116610225565b604051610123919061081e565b60405180910390f35b610134610249565b005b610150600480360381019061014b91906109f9565b61054a565b60405161015d9190610a26565b60405180910390f35b60008060009054906101000a900473ffffffffffffffffffffffffffffffffffffffff16905090565b60036020528060005260406000206000915090508060000154908060010160009054906101000a900473ffffffffffffffffffffffffffffffffffffffff16908060020154905083565b600160009054906101000a900473ffffffffffffffffffffffffffffffffffffffff1681565b600260009054906101000a900473ffffffffffffffffffffffffffffffffffffffff1681565b60008054906101000a900473ffffffffffffffffffffffffffffffffffffffff1681565b6001600360003373ffffffffffffffffffffffffffffffffffffffff1673ffffffffffffffffffffffffffffffffffffffff168152602001908152602001600020600201546102989190610a70565b4210156102da576040517f08c379a00000000000000000000000000000000000000000000000000000000081526004016102d190610b27565b60405180910390fd5b600260009054906101000a900473ffffffffffffffffffffffffffffffffffffffff1673ffffffffffffffffffffffffffffffffffffffff1663a9059cbb3360646040518363ffffffff1660e01b8152600401610338929190610b82565b6020604051808303816000875af1158015610357573d6000803e3d6000fd5b505050506040513d601f19601f8201168201806040525081019061037b9190610be3565b506000600160009054906101000a900473ffffffffffffffffffffffffffffffffffffffff1673ffffffffffffffffffffffffffffffffffffffff1663bdc130c26040518163ffffffff1660e01b8152600401600060405180830381865afa1580156103eb573d6000803e3d6000fd5b505050506040513d6000823e3d601f19601f820116820180604052508101906104149190610d7e565b9050600160009054906101000a900473ffffffffffffffffffffffffffffffffffffffff1673ffffffffffffffffffffffffffffffffffffffff166323b872dd303384600186516104659190610dc7565b8151811061047657610475610dfb565b5b60200260200101516040518463ffffffff1660e01b815260040161049c93929190610e2a565b600060405180830381600087803b1580156104b657600080fd5b505af11580156104ca573d6000803e3d6000fd5b50505050600360003373ffffffffffffffffffffffffffffffffffffffff1673ffffffffffffffffffffffffffffffffffffffff1681526020019081526020016000206000808201600090556001820160006101000a81549073ffffffffffffffffffffffffffffffffffffffff02191690556002820160009055505050565b600081600260009054906101000a900473ffffffffffffffffffffffffffffffffffffffff1673ffffffffffffffffffffffffffffffffffffffff166370a08231336040518263ffffffff1660e01b81526004016105a8919061081e565b602060405180830381865afa1580156105c5573d6000803e3d6000fd5b505050506040513d601f19601f820116820180604052508101906105e99190610e61565b101561062a576040517f08c379a000000000000000000000000000000000000000000000000000000000815260040161062190610f00565b60405180910390fd5b600260009054906101000a900473ffffffffffffffffffffffffffffffffffffffff1673ffffffffffffffffffffffffffffffffffffffff166323b872dd3330856040518463ffffffff1660e01b815260040161068993929190610e2a565b6020604051808303816000875af11580156106a8573d6000803e3d6000fd5b505050506040513d601f19601f820116820180604052508101906106cc9190610be3565b5060405180606001604052808381526020013373ffffffffffffffffffffffffffffffffffffffff16815260200142815250600360003373ffffffffffffffffffffffffffffffffffffffff1673ffffffffffffffffffffffffffffffffffffffff1681526020019081526020016000206000820151816000015560208201518160010160006101000a81548173ffffffffffffffffffffffffffffffffffffffff021916908373ffffffffffffffffffffffffffffffffffffffff16021790555060408201518160020155905050817fa7cc93ad92b4f5cc45c1f7e581b2a17f1c240bbffddb41ca29deff66655c9a6933426040516107cd929190610f20565b60405180910390a2429050919050565b600073ffffffffffffffffffffffffffffffffffffffff82169050919050565b6000610808826107dd565b9050919050565b610818816107fd565b82525050565b6000602082019050610833600083018461080f565b92915050565b6000604051905090565b600080fd5b600080fd5b610856816107fd565b811461086157600080fd5b50565b6000813590506108738161084d565b92915050565b60006020828403121561088f5761088e610843565b5b600061089d84828501610864565b91505092915050565b6000819050919050565b6108b9816108a6565b82525050565b60006108ca826107dd565b9050919050565b6108da816108bf565b82525050565b60006060820190506108f560008301866108b0565b61090260208301856108d1565b61090f60408301846108b0565b949350505050565b6000819050919050565b600061093c610937610932846107dd565b610917565b6107dd565b9050919050565b600061094e82610921565b9050919050565b600061096082610943565b9050919050565b61097081610955565b82525050565b600060208201905061098b6000830184610967565b92915050565b600061099c82610943565b9050919050565b6109ac81610991565b82525050565b60006020820190506109c760008301846109a3565b92915050565b6109d6816108a6565b81146109e157600080fd5b50565b6000813590506109f3816109cd565b92915050565b600060208284031215610a0f57610a0e610843565b5b6000610a1d848285016109e4565b91505092915050565b6000602082019050610a3b60008301846108b0565b92915050565b7f4e487b7100000000000000000000000000000000000000000000000000000000600052601160045260246000fd5b6000610a7b826108a6565b9150610a86836108a6565b9250828201905080821115610a9e57610a9d610a41565b5b92915050565b600082825260208201905092915050565b7f4d696e696d756d20737461636b696e672074696d65206e6f742072656163686560008201527f6400000000000000000000000000000000000000000000000000000000000000602082015250565b6000610b11602183610aa4565b9150610b1c82610ab5565b604082019050919050565b60006020820190508181036000830152610b4081610b04565b9050919050565b6000819050919050565b6000610b6c610b67610b6284610b47565b610917565b6108a6565b9050919050565b610b7c81610b51565b82525050565b6000604082019050610b97600083018561080f565b610ba46020830184610b73565b9392505050565b60008115159050919050565b610bc081610bab565b8114610bcb57600080fd5b50565b600081519050610bdd81610bb7565b92915050565b600060208284031215610bf957610bf8610843565b5b6000610c0784828501610bce565b91505092915050565b600080fd5b6000601f19601f8301169050919050565b7f4e487b7100000000000000000000000000000000000000000000000000000000600052604160045260246000fd5b610c5e82610c15565b810181811067ffffffffffffffff82111715610c7d57610c7c610c26565b5b80604052505050565b6000610c90610839565b9050610c9c8282610c55565b919050565b600067ffffffffffffffff821115610cbc57610cbb610c26565b5b602082029050602081019050919050565b600080fd5b600081519050610ce1816109cd565b92915050565b6000610cfa610cf584610ca1565b610c86565b90508083825260208201905060208402830185811115610d1d57610d1c610ccd565b5b835b81811015610d465780610d328882610cd2565b845260208401935050602081019050610d1f565b5050509392505050565b600082601f830112610d6557610d64610c10565b5b8151610d75848260208601610ce7565b91505092915050565b600060208284031215610d9457610d93610843565b5b600082015167ffffffffffffffff811115610db257610db1610848565b5b610dbe84828501610d50565b91505092915050565b6000610dd2826108a6565b9150610ddd836108a6565b9250828203905081811115610df557610df4610a41565b5b92915050565b7f4e487b7100000000000000000000000000000000000000000000000000000000600052603260045260246000fd5b6000606082019050610e3f600083018661080f565b610e4c602083018561080f565b610e5960408301846108b0565b949350505050565b600060208284031215610e7757610e76610843565b5b6000610e8584828501610cd2565b91505092915050565b7f596f7520646f6e2774206861766520656e6f7567682062616c616e636520746f60008201527f206d616b652061207472616e73616374696f6e00000000000000000000000000602082015250565b6000610eea603383610aa4565b9150610ef582610e8e565b604082019050919050565b60006020820190508181036000830152610f1981610edd565b9050919050565b6000604082019050610f35600083018561080f565b610f4260208301846108b0565b939250505056fea2646970667358221220aa504cb77483bbe1a9218ff89191eb5589ab1881131d09be8c2577689d61f64a64736f6c63430008120033",
  "linkReferences": {},
  "deployedLinkReferences": {}
}