{
  "_format": "hh-sol-artifact-1",
  "contractName": "StakingNFTPool",
  "sourceName": "contracts/StakingNFTPool.sol",
  "abi": [
    {
      "inputs": [
        {
          "internalType": "address",
          "name": "_wibuNFTAddress",
          "type": "address"
        },
        {
          "internalType": "address",
          "name": "_wibuTokenAddress",
          "type": "address"
        }
      ],
      "stateMutability": "nonpayable",
      "type": "constructor"
    },
    {
      "anonymous": false,
      "inputs": [
        {
          "indexed": true,
          "internalType": "uint256",
          "name": "nftId",
          "type": "uint256"
        },
        {
          "indexed": false,
          "internalType": "address",
          "name": "owner",
          "type": "address"
        },
        {
          "indexed": false,
          "internalType": "uint256",
          "name": "stackingBlock",
          "type": "uint256"
        }
      ],
      "name": "NFTStackedSuccess",
      "type": "event"
    },
    {
      "inputs": [
        {
          "internalType": "uint256",
          "name": "_nftId",
          "type": "uint256"
        }
      ],
      "name": "checkBlock",
      "outputs": [
        {
          "internalType": "uint256",
          "name": "",
          "type": "uint256"
        }
      ],
      "stateMutability": "view",
      "type": "function"
    },
    {
      "inputs": [
        {
          "internalType": "uint256",
          "name": "_nftId",
          "type": "uint256"
        }
      ],
      "name": "checkTime",
      "outputs": [
        {
          "internalType": "uint256",
          "name": "",
          "type": "uint256"
        }
      ],
      "stateMutability": "view",
      "type": "function"
    },
    {
      "inputs": [
        {
          "internalType": "uint256",
          "name": "_nftId",
          "type": "uint256"
        }
      ],
      "name": "claimReward",
      "outputs": [],
      "stateMutability": "nonpayable",
      "type": "function"
    },
    {
      "inputs": [
        {
          "internalType": "uint256",
          "name": "_nftId",
          "type": "uint256"
        }
      ],
      "name": "claimToken",
      "outputs": [],
      "stateMutability": "nonpayable",
      "type": "function"
    },
    {
      "inputs": [],
      "name": "get_owner",
      "outputs": [
        {
          "internalType": "address",
          "name": "",
          "type": "address"
        }
      ],
      "stateMutability": "view",
      "type": "function"
    },
    {
      "inputs": [],
      "name": "owner",
      "outputs": [
        {
          "internalType": "address",
          "name": "",
          "type": "address"
        }
      ],
      "stateMutability": "view",
      "type": "function"
    },
    {
      "inputs": [
        {
          "internalType": "uint256",
          "name": "_nftId",
          "type": "uint256"
        }
      ],
      "name": "stackNFT",
      "outputs": [
        {
          "internalType": "uint256",
          "name": "",
          "type": "uint256"
        }
      ],
      "stateMutability": "nonpayable",
      "type": "function"
    },
    {
      "inputs": [
        {
          "internalType": "uint256",
          "name": "",
          "type": "uint256"
        }
      ],
      "name": "staking",
      "outputs": [
        {
          "internalType": "uint256",
          "name": "nftId",
          "type": "uint256"
        },
        {
          "internalType": "address payable",
          "name": "owner",
          "type": "address"
        },
        {
          "internalType": "uint256",
          "name": "stackingBlock",
          "type": "uint256"
        }
      ],
      "stateMutability": "view",
      "type": "function"
    },
    {
      "inputs": [],
      "name": "totalNFTs",
      "outputs": [
        {
          "internalType": "uint256",
          "name": "",
          "type": "uint256"
        }
      ],
      "stateMutability": "view",
      "type": "function"
    },
    {
      "inputs": [],
      "name": "wibuNFT",
      "outputs": [
        {
          "internalType": "contract WibuNFT",
          "name": "",
          "type": "address"
        }
      ],
      "stateMutability": "view",
      "type": "function"
    },
    {
      "inputs": [],
      "name": "wibuToken",
      "outputs": [
        {
          "internalType": "contract WibuToken",
          "name": "",
          "type": "address"
        }
      ],
      "stateMutability": "view",
      "type": "function"
    }
  ],
  "bytecode": "0x60806040523480156200001157600080fd5b50604051620013823803806200138283398181016040528101906200003791906200016b565b336000806101000a81548173ffffffffffffffffffffffffffffffffffffffff021916908373ffffffffffffffffffffffffffffffffffffffff16021790555081600260006101000a81548173ffffffffffffffffffffffffffffffffffffffff021916908373ffffffffffffffffffffffffffffffffffffffff16021790555080600360006101000a81548173ffffffffffffffffffffffffffffffffffffffff021916908373ffffffffffffffffffffffffffffffffffffffff1602179055505050620001b2565b600080fd5b600073ffffffffffffffffffffffffffffffffffffffff82169050919050565b6000620001338262000106565b9050919050565b620001458162000126565b81146200015157600080fd5b50565b60008151905062000165816200013a565b92915050565b6000806040838503121562000185576200018462000101565b5b6000620001958582860162000154565b9250506020620001a88582860162000154565b9150509250929050565b6111c080620001c26000396000f3fe608060405234801561001057600080fd5b50600436106100a95760003560e01c806361841cd61161007157806361841cd61461016a5780637be3251b1461019a57806383a9cd54146101b85780638da5cb5b146101e8578063a9e7c2e514610206578063ae169a5014610222576100a9565b80630ac298dc146100ae5780630d0e96da146100cc57806313e4464c146100ea5780631dbb2a221461011a57806354596af91461014c575b600080fd5b6100b661023e565b6040516100c39190610a71565b60405180910390f35b6100d4610267565b6040516100e19190610aa5565b60405180910390f35b61010460048036038101906100ff9190610af1565b61026d565b6040516101119190610aa5565b60405180910390f35b610134600480360381019061012f9190610af1565b61028d565b60405161014393929190610b3f565b60405180910390f35b6101546102d7565b6040516101619190610bd5565b60405180910390f35b610184600480360381019061017f9190610af1565b6102fd565b6040516101919190610aa5565b60405180910390f35b6101a2610328565b6040516101af9190610c11565b60405180910390f35b6101d260048036038101906101cd9190610af1565b61034e565b6040516101df9190610aa5565b60405180910390f35b6101f06105e6565b6040516101fd9190610a71565b60405180910390f35b610220600480360381019061021b9190610af1565b61060a565b005b61023c60048036038101906102379190610af1565b6107c0565b005b60008060009054906101000a900473ffffffffffffffffffffffffffffffffffffffff16905090565b60015481565b600060046000838152602001908152602001600020600201549050919050565b60046020528060005260406000206000915090508060000154908060010160009054906101000a900473ffffffffffffffffffffffffffffffffffffffff16908060020154905083565b600260009054906101000a900473ffffffffffffffffffffffffffffffffffffffff1681565b60006004600083815260200190815260200160002060020154436103219190610c5b565b9050919050565b600360009054906101000a900473ffffffffffffffffffffffffffffffffffffffff1681565b60003373ffffffffffffffffffffffffffffffffffffffff16600260009054906101000a900473ffffffffffffffffffffffffffffffffffffffff1673ffffffffffffffffffffffffffffffffffffffff16636352211e846040518263ffffffff1660e01b81526004016103c29190610aa5565b602060405180830381865afa1580156103df573d6000803e3d6000fd5b505050506040513d601f19601f820116820180604052508101906104039190610cbb565b73ffffffffffffffffffffffffffffffffffffffff1614610459576040517f08c379a000000000000000000000000000000000000000000000000000000000815260040161045090610d6b565b60405180910390fd5b6001600081548092919061046c90610d8b565b9190505550600260009054906101000a900473ffffffffffffffffffffffffffffffffffffffff1673ffffffffffffffffffffffffffffffffffffffff166323b872dd3330856040518463ffffffff1660e01b81526004016104d093929190610dd3565b600060405180830381600087803b1580156104ea57600080fd5b505af11580156104fe573d6000803e3d6000fd5b5050505060405180606001604052808381526020013373ffffffffffffffffffffffffffffffffffffffff16815260200143815250600460008481526020019081526020016000206000820151816000015560208201518160010160006101000a81548173ffffffffffffffffffffffffffffffffffffffff021916908373ffffffffffffffffffffffffffffffffffffffff16021790555060408201518160020155905050817ffd1eacc24143ee039ebafb759bef816d1c6fd0dfa0cc8e6352da402cbcee37f733436040516105d6929190610e0a565b60405180910390a2439050919050565b60008054906101000a900473ffffffffffffffffffffffffffffffffffffffff1681565b6018600460008381526020019081526020016000206002015461062d9190610e33565b43101561066f576040517f08c379a000000000000000000000000000000000000000000000000000000000815260040161066690610ed9565b60405180910390fd5b60006004600083815260200190815260200160002060000154036106c8576040517f08c379a00000000000000000000000000000000000000000000000000000000081526004016106bf90610f45565b60405180910390fd5b600360009054906101000a900473ffffffffffffffffffffffffffffffffffffffff1673ffffffffffffffffffffffffffffffffffffffff1663a9059cbb336012600a6107159190611098565b61271061072291906110e3565b6040518363ffffffff1660e01b815260040161073f929190610e0a565b6020604051808303816000875af115801561075e573d6000803e3d6000fd5b505050506040513d601f19601f82011682018060405250810190610782919061115d565b50807ffd1eacc24143ee039ebafb759bef816d1c6fd0dfa0cc8e6352da402cbcee37f733436040516107b5929190610e0a565b60405180910390a250565b601860046000838152602001908152602001600020600201546107e39190610e33565b431015610825576040517f08c379a000000000000000000000000000000000000000000000000000000000815260040161081c90610ed9565b60405180910390fd5b600060046000838152602001908152602001600020600001540361087e576040517f08c379a000000000000000000000000000000000000000000000000000000000815260040161087590610f45565b60405180910390fd5b600360009054906101000a900473ffffffffffffffffffffffffffffffffffffffff1673ffffffffffffffffffffffffffffffffffffffff1663a9059cbb336012600a6108cb9190611098565b6127106108d891906110e3565b6040518363ffffffff1660e01b81526004016108f5929190610e0a565b6020604051808303816000875af1158015610914573d6000803e3d6000fd5b505050506040513d601f19601f82011682018060405250810190610938919061115d565b50600260009054906101000a900473ffffffffffffffffffffffffffffffffffffffff1673ffffffffffffffffffffffffffffffffffffffff166323b872dd303360046000868152602001908152602001600020600001546040518463ffffffff1660e01b81526004016109ae93929190610dd3565b600060405180830381600087803b1580156109c857600080fd5b505af11580156109dc573d6000803e3d6000fd5b50505050600460008281526020019081526020016000206000808201600090556001820160006101000a81549073ffffffffffffffffffffffffffffffffffffffff02191690556002820160009055505050565b600073ffffffffffffffffffffffffffffffffffffffff82169050919050565b6000610a5b82610a30565b9050919050565b610a6b81610a50565b82525050565b6000602082019050610a866000830184610a62565b92915050565b6000819050919050565b610a9f81610a8c565b82525050565b6000602082019050610aba6000830184610a96565b92915050565b600080fd5b610ace81610a8c565b8114610ad957600080fd5b50565b600081359050610aeb81610ac5565b92915050565b600060208284031215610b0757610b06610ac0565b5b6000610b1584828501610adc565b91505092915050565b6000610b2982610a30565b9050919050565b610b3981610b1e565b82525050565b6000606082019050610b546000830186610a96565b610b616020830185610b30565b610b6e6040830184610a96565b949350505050565b6000819050919050565b6000610b9b610b96610b9184610a30565b610b76565b610a30565b9050919050565b6000610bad82610b80565b9050919050565b6000610bbf82610ba2565b9050919050565b610bcf81610bb4565b82525050565b6000602082019050610bea6000830184610bc6565b92915050565b6000610bfb82610ba2565b9050919050565b610c0b81610bf0565b82525050565b6000602082019050610c266000830184610c02565b92915050565b7f4e487b7100000000000000000000000000000000000000000000000000000000600052601160045260246000fd5b6000610c6682610a8c565b9150610c7183610a8c565b9250828203905081811115610c8957610c88610c2c565b5b92915050565b610c9881610a50565b8114610ca357600080fd5b50565b600081519050610cb581610c8f565b92915050565b600060208284031215610cd157610cd0610ac0565b5b6000610cdf84828501610ca6565b91505092915050565b600082825260208201905092915050565b7f596f7520617265206e6f7420746865206f776e6572206f662074686973204e4660008201527f5400000000000000000000000000000000000000000000000000000000000000602082015250565b6000610d55602183610ce8565b9150610d6082610cf9565b604082019050919050565b60006020820190508181036000830152610d8481610d48565b9050919050565b6000610d9682610a8c565b91507fffffffffffffffffffffffffffffffffffffffffffffffffffffffffffffffff8203610dc857610dc7610c2c565b5b600182019050919050565b6000606082019050610de86000830186610a62565b610df56020830185610a62565b610e026040830184610a96565b949350505050565b6000604082019050610e1f6000830185610a62565b610e2c6020830184610a96565b9392505050565b6000610e3e82610a8c565b9150610e4983610a8c565b9250828201905080821115610e6157610e60610c2c565b5b92915050565b7f4d696e696d756d20737461636b696e672074696d65206e6f742072656163686560008201527f6400000000000000000000000000000000000000000000000000000000000000602082015250565b6000610ec3602183610ce8565b9150610ece82610e67565b604082019050919050565b60006020820190508181036000830152610ef281610eb6565b9050919050565b7f596f752068617665206e6f7420737461636b656420616e79204e465400000000600082015250565b6000610f2f601c83610ce8565b9150610f3a82610ef9565b602082019050919050565b60006020820190508181036000830152610f5e81610f22565b9050919050565b60008160011c9050919050565b6000808291508390505b6001851115610fbc57808604811115610f9857610f97610c2c565b5b6001851615610fa75780820291505b8081029050610fb585610f65565b9450610f7c565b94509492505050565b600082610fd55760019050611091565b81610fe35760009050611091565b8160018114610ff9576002811461100357611032565b6001915050611091565b60ff84111561101557611014610c2c565b5b8360020a91508482111561102c5761102b610c2c565b5b50611091565b5060208310610133831016604e8410600b84101617156110675782820a90508381111561106257611061610c2c565b5b611091565b6110748484846001610f72565b9250905081840481111561108b5761108a610c2c565b5b81810290505b9392505050565b60006110a382610a8c565b91506110ae83610a8c565b92506110db7fffffffffffffffffffffffffffffffffffffffffffffffffffffffffffffffff8484610fc5565b905092915050565b60006110ee82610a8c565b91506110f983610a8c565b925082820261110781610a8c565b9150828204841483151761111e5761111d610c2c565b5b5092915050565b60008115159050919050565b61113a81611125565b811461114557600080fd5b50565b60008151905061115781611131565b92915050565b60006020828403121561117357611172610ac0565b5b600061118184828501611148565b9150509291505056fea26469706673582212206f8d0701811eeb6a8266465ef892f43796a6d14b058b7fa31c43f144110b543064736f6c63430008120033",
  "linkReferences": {},
  "deployedLinkReferences": {}
}