{
  "_format": "hh-sol-artifact-1",
  "contractName": "StakingNFTPool",
  "sourceName": "contracts/StakingNFTPool.sol",
  "abi": [
    {
      "inputs": [
        {
          "internalType": "address",
          "name": "_wibuNFTAddress",
          "type": "address"
        },
        {
          "internalType": "address",
          "name": "_wibuTokenAddress",
          "type": "address"
        }
      ],
      "stateMutability": "nonpayable",
      "type": "constructor"
    },
    {
      "anonymous": false,
      "inputs": [
        {
          "indexed": true,
          "internalType": "uint256",
          "name": "nftId",
          "type": "uint256"
        },
        {
          "indexed": false,
          "internalType": "address",
          "name": "owner",
          "type": "address"
        },
        {
          "indexed": false,
          "internalType": "uint256",
          "name": "stackingBlock",
          "type": "uint256"
        }
      ],
      "name": "NFTStackedSuccess",
      "type": "event"
    },
    {
      "inputs": [
        {
          "internalType": "uint256",
          "name": "_nftId",
          "type": "uint256"
        }
      ],
      "name": "checkBlock",
      "outputs": [
        {
          "internalType": "uint256",
          "name": "",
          "type": "uint256"
        }
      ],
      "stateMutability": "view",
      "type": "function"
    },
    {
      "inputs": [
        {
          "internalType": "uint256",
          "name": "_nftId",
          "type": "uint256"
        }
      ],
      "name": "checkTime",
      "outputs": [
        {
          "internalType": "uint256",
          "name": "",
          "type": "uint256"
        }
      ],
      "stateMutability": "view",
      "type": "function"
    },
    {
      "inputs": [
        {
          "internalType": "uint256",
          "name": "_nftId",
          "type": "uint256"
        }
      ],
      "name": "claimReward",
      "outputs": [],
      "stateMutability": "nonpayable",
      "type": "function"
    },
    {
      "inputs": [
        {
          "internalType": "uint256",
          "name": "_nftId",
          "type": "uint256"
        }
      ],
      "name": "claimToken",
      "outputs": [],
      "stateMutability": "nonpayable",
      "type": "function"
    },
    {
      "inputs": [],
      "name": "get_owner",
      "outputs": [
        {
          "internalType": "address",
          "name": "",
          "type": "address"
        }
      ],
      "stateMutability": "view",
      "type": "function"
    },
    {
      "inputs": [],
      "name": "owner",
      "outputs": [
        {
          "internalType": "address",
          "name": "",
          "type": "address"
        }
      ],
      "stateMutability": "view",
      "type": "function"
    },
    {
      "inputs": [
        {
          "internalType": "uint256",
          "name": "_nftId",
          "type": "uint256"
        }
      ],
      "name": "stackNFT",
      "outputs": [
        {
          "internalType": "uint256",
          "name": "",
          "type": "uint256"
        }
      ],
      "stateMutability": "nonpayable",
      "type": "function"
    },
    {
      "inputs": [
        {
          "internalType": "uint256",
          "name": "",
          "type": "uint256"
        }
      ],
      "name": "staking",
      "outputs": [
        {
          "internalType": "uint256",
          "name": "nftId",
          "type": "uint256"
        },
        {
          "internalType": "address payable",
          "name": "owner",
          "type": "address"
        },
        {
          "internalType": "uint256",
          "name": "stackingBlock",
          "type": "uint256"
        }
      ],
      "stateMutability": "view",
      "type": "function"
    },
    {
      "inputs": [],
      "name": "totalNFTs",
      "outputs": [
        {
          "internalType": "uint256",
          "name": "",
          "type": "uint256"
        }
      ],
      "stateMutability": "view",
      "type": "function"
    },
    {
      "inputs": [],
      "name": "wibuNFT",
      "outputs": [
        {
          "internalType": "contract WibuNFT",
          "name": "",
          "type": "address"
        }
      ],
      "stateMutability": "view",
      "type": "function"
    },
    {
      "inputs": [],
      "name": "wibuToken",
      "outputs": [
        {
          "internalType": "contract WibuToken",
          "name": "",
          "type": "address"
        }
      ],
      "stateMutability": "view",
      "type": "function"
    }
  ],
  "bytecode": "0x60806040523480156200001157600080fd5b50604051620013633803806200136383398181016040528101906200003791906200016b565b336000806101000a81548173ffffffffffffffffffffffffffffffffffffffff021916908373ffffffffffffffffffffffffffffffffffffffff16021790555081600260006101000a81548173ffffffffffffffffffffffffffffffffffffffff021916908373ffffffffffffffffffffffffffffffffffffffff16021790555080600360006101000a81548173ffffffffffffffffffffffffffffffffffffffff021916908373ffffffffffffffffffffffffffffffffffffffff1602179055505050620001b2565b600080fd5b600073ffffffffffffffffffffffffffffffffffffffff82169050919050565b6000620001338262000106565b9050919050565b620001458162000126565b81146200015157600080fd5b50565b60008151905062000165816200013a565b92915050565b6000806040838503121562000185576200018462000101565b5b6000620001958582860162000154565b9250506020620001a88582860162000154565b9150509250929050565b6111a180620001c26000396000f3fe608060405234801561001057600080fd5b50600436106100a95760003560e01c806361841cd61161007157806361841cd61461016a5780637be3251b1461019a57806383a9cd54146101b85780638da5cb5b146101e8578063a9e7c2e514610206578063ae169a5014610222576100a9565b80630ac298dc146100ae5780630d0e96da146100cc57806313e4464c146100ea5780631dbb2a221461011a57806354596af91461014c575b600080fd5b6100b661023e565b6040516100c39190610a52565b60405180910390f35b6100d4610267565b6040516100e19190610a86565b60405180910390f35b61010460048036038101906100ff9190610ad2565b61026d565b6040516101119190610a86565b60405180910390f35b610134600480360381019061012f9190610ad2565b61028d565b60405161014393929190610b20565b60405180910390f35b6101546102d7565b6040516101619190610bb6565b60405180910390f35b610184600480360381019061017f9190610ad2565b6102fd565b6040516101919190610a86565b60405180910390f35b6101a2610328565b6040516101af9190610bf2565b60405180910390f35b6101d260048036038101906101cd9190610ad2565b61034e565b6040516101df9190610a86565b60405180910390f35b6101f06105e6565b6040516101fd9190610a52565b60405180910390f35b610220600480360381019061021b9190610ad2565b61060a565b005b61023c60048036038101906102379190610ad2565b6107a1565b005b60008060009054906101000a900473ffffffffffffffffffffffffffffffffffffffff16905090565b60015481565b600060046000838152602001908152602001600020600201549050919050565b60046020528060005260406000206000915090508060000154908060010160009054906101000a900473ffffffffffffffffffffffffffffffffffffffff16908060020154905083565b600260009054906101000a900473ffffffffffffffffffffffffffffffffffffffff1681565b60006004600083815260200190815260200160002060020154436103219190610c3c565b9050919050565b600360009054906101000a900473ffffffffffffffffffffffffffffffffffffffff1681565b60003373ffffffffffffffffffffffffffffffffffffffff16600260009054906101000a900473ffffffffffffffffffffffffffffffffffffffff1673ffffffffffffffffffffffffffffffffffffffff16636352211e846040518263ffffffff1660e01b81526004016103c29190610a86565b602060405180830381865afa1580156103df573d6000803e3d6000fd5b505050506040513d601f19601f820116820180604052508101906104039190610c9c565b73ffffffffffffffffffffffffffffffffffffffff1614610459576040517f08c379a000000000000000000000000000000000000000000000000000000000815260040161045090610d4c565b60405180910390fd5b6001600081548092919061046c90610d6c565b9190505550600260009054906101000a900473ffffffffffffffffffffffffffffffffffffffff1673ffffffffffffffffffffffffffffffffffffffff166323b872dd3330856040518463ffffffff1660e01b81526004016104d093929190610db4565b600060405180830381600087803b1580156104ea57600080fd5b505af11580156104fe573d6000803e3d6000fd5b5050505060405180606001604052808381526020013373ffffffffffffffffffffffffffffffffffffffff16815260200143815250600460008481526020019081526020016000206000820151816000015560208201518160010160006101000a81548173ffffffffffffffffffffffffffffffffffffffff021916908373ffffffffffffffffffffffffffffffffffffffff16021790555060408201518160020155905050817ffd1eacc24143ee039ebafb759bef816d1c6fd0dfa0cc8e6352da402cbcee37f733436040516105d6929190610deb565b60405180910390a2439050919050565b60008054906101000a900473ffffffffffffffffffffffffffffffffffffffff1681565b6018600460008381526020019081526020016000206002015461062d9190610e14565b43101561066f576040517f08c379a000000000000000000000000000000000000000000000000000000000815260040161066690610eba565b60405180910390fd5b60006004600083815260200190815260200160002060000154036106c8576040517f08c379a00000000000000000000000000000000000000000000000000000000081526004016106bf90610f26565b60405180910390fd5b600360009054906101000a900473ffffffffffffffffffffffffffffffffffffffff1673ffffffffffffffffffffffffffffffffffffffff1663a9059cbb336012600a6107159190611079565b61271061072291906110c4565b6040518363ffffffff1660e01b815260040161073f929190610deb565b6020604051808303816000875af115801561075e573d6000803e3d6000fd5b505050506040513d601f19601f82011682018060405250810190610782919061113e565b5043600460008381526020019081526020016000206002018190555050565b601860046000838152602001908152602001600020600201546107c49190610e14565b431015610806576040517f08c379a00000000000000000000000000000000000000000000000000000000081526004016107fd90610eba565b60405180910390fd5b600060046000838152602001908152602001600020600001540361085f576040517f08c379a000000000000000000000000000000000000000000000000000000000815260040161085690610f26565b60405180910390fd5b600360009054906101000a900473ffffffffffffffffffffffffffffffffffffffff1673ffffffffffffffffffffffffffffffffffffffff1663a9059cbb336012600a6108ac9190611079565b6127106108b991906110c4565b6040518363ffffffff1660e01b81526004016108d6929190610deb565b6020604051808303816000875af11580156108f5573d6000803e3d6000fd5b505050506040513d601f19601f82011682018060405250810190610919919061113e565b50600260009054906101000a900473ffffffffffffffffffffffffffffffffffffffff1673ffffffffffffffffffffffffffffffffffffffff166323b872dd303360046000868152602001908152602001600020600001546040518463ffffffff1660e01b815260040161098f93929190610db4565b600060405180830381600087803b1580156109a957600080fd5b505af11580156109bd573d6000803e3d6000fd5b50505050600460008281526020019081526020016000206000808201600090556001820160006101000a81549073ffffffffffffffffffffffffffffffffffffffff02191690556002820160009055505050565b600073ffffffffffffffffffffffffffffffffffffffff82169050919050565b6000610a3c82610a11565b9050919050565b610a4c81610a31565b82525050565b6000602082019050610a676000830184610a43565b92915050565b6000819050919050565b610a8081610a6d565b82525050565b6000602082019050610a9b6000830184610a77565b92915050565b600080fd5b610aaf81610a6d565b8114610aba57600080fd5b50565b600081359050610acc81610aa6565b92915050565b600060208284031215610ae857610ae7610aa1565b5b6000610af684828501610abd565b91505092915050565b6000610b0a82610a11565b9050919050565b610b1a81610aff565b82525050565b6000606082019050610b356000830186610a77565b610b426020830185610b11565b610b4f6040830184610a77565b949350505050565b6000819050919050565b6000610b7c610b77610b7284610a11565b610b57565b610a11565b9050919050565b6000610b8e82610b61565b9050919050565b6000610ba082610b83565b9050919050565b610bb081610b95565b82525050565b6000602082019050610bcb6000830184610ba7565b92915050565b6000610bdc82610b83565b9050919050565b610bec81610bd1565b82525050565b6000602082019050610c076000830184610be3565b92915050565b7f4e487b7100000000000000000000000000000000000000000000000000000000600052601160045260246000fd5b6000610c4782610a6d565b9150610c5283610a6d565b9250828203905081811115610c6a57610c69610c0d565b5b92915050565b610c7981610a31565b8114610c8457600080fd5b50565b600081519050610c9681610c70565b92915050565b600060208284031215610cb257610cb1610aa1565b5b6000610cc084828501610c87565b91505092915050565b600082825260208201905092915050565b7f596f7520617265206e6f7420746865206f776e6572206f662074686973204e4660008201527f5400000000000000000000000000000000000000000000000000000000000000602082015250565b6000610d36602183610cc9565b9150610d4182610cda565b604082019050919050565b60006020820190508181036000830152610d6581610d29565b9050919050565b6000610d7782610a6d565b91507fffffffffffffffffffffffffffffffffffffffffffffffffffffffffffffffff8203610da957610da8610c0d565b5b600182019050919050565b6000606082019050610dc96000830186610a43565b610dd66020830185610a43565b610de36040830184610a77565b949350505050565b6000604082019050610e006000830185610a43565b610e0d6020830184610a77565b9392505050565b6000610e1f82610a6d565b9150610e2a83610a6d565b9250828201905080821115610e4257610e41610c0d565b5b92915050565b7f4d696e696d756d20737461636b696e672074696d65206e6f742072656163686560008201527f6400000000000000000000000000000000000000000000000000000000000000602082015250565b6000610ea4602183610cc9565b9150610eaf82610e48565b604082019050919050565b60006020820190508181036000830152610ed381610e97565b9050919050565b7f596f752068617665206e6f7420737461636b656420616e79204e465400000000600082015250565b6000610f10601c83610cc9565b9150610f1b82610eda565b602082019050919050565b60006020820190508181036000830152610f3f81610f03565b9050919050565b60008160011c9050919050565b6000808291508390505b6001851115610f9d57808604811115610f7957610f78610c0d565b5b6001851615610f885780820291505b8081029050610f9685610f46565b9450610f5d565b94509492505050565b600082610fb65760019050611072565b81610fc45760009050611072565b8160018114610fda5760028114610fe457611013565b6001915050611072565b60ff841115610ff657610ff5610c0d565b5b8360020a91508482111561100d5761100c610c0d565b5b50611072565b5060208310610133831016604e8410600b84101617156110485782820a90508381111561104357611042610c0d565b5b611072565b6110558484846001610f53565b9250905081840481111561106c5761106b610c0d565b5b81810290505b9392505050565b600061108482610a6d565b915061108f83610a6d565b92506110bc7fffffffffffffffffffffffffffffffffffffffffffffffffffffffffffffffff8484610fa6565b905092915050565b60006110cf82610a6d565b91506110da83610a6d565b92508282026110e881610a6d565b915082820484148315176110ff576110fe610c0d565b5b5092915050565b60008115159050919050565b61111b81611106565b811461112657600080fd5b50565b60008151905061113881611112565b92915050565b60006020828403121561115457611153610aa1565b5b600061116284828501611129565b9150509291505056fea26469706673582212204d18e3e121d98954abb2ce018a73c9fe42312261feebda92532e25d130f1244064736f6c63430008120033",
  "linkReferences": {},
  "deployedLinkReferences": {}
}