{
  "_format": "hh-sol-artifact-1",
  "contractName": "StakingNFTPool",
  "sourceName": "contracts/StakingNFTPool.sol",
  "abi": [
    {
      "inputs": [
        {
          "internalType": "address",
          "name": "_wibuNFTAddress",
          "type": "address"
        },
        {
          "internalType": "address",
          "name": "_wibuTokenAddress",
          "type": "address"
        },
        {
          "internalType": "uint256",
          "name": "_standardTime",
          "type": "uint256"
        }
      ],
      "stateMutability": "nonpayable",
      "type": "constructor"
    },
    {
      "anonymous": false,
      "inputs": [
        {
          "indexed": true,
          "internalType": "uint256",
          "name": "nftId",
          "type": "uint256"
        },
        {
          "indexed": false,
          "internalType": "address",
          "name": "owner",
          "type": "address"
        },
        {
          "indexed": false,
          "internalType": "uint256",
          "name": "stackingBlock",
          "type": "uint256"
        }
      ],
      "name": "NFTStackedSuccess",
      "type": "event"
    },
    {
      "inputs": [
        {
          "internalType": "uint256",
          "name": "_nftId",
          "type": "uint256"
        }
      ],
      "name": "checkBlock",
      "outputs": [
        {
          "internalType": "uint256",
          "name": "",
          "type": "uint256"
        }
      ],
      "stateMutability": "view",
      "type": "function"
    },
    {
      "inputs": [
        {
          "internalType": "uint256",
          "name": "_nftId",
          "type": "uint256"
        }
      ],
      "name": "checkTime",
      "outputs": [
        {
          "internalType": "uint256",
          "name": "",
          "type": "uint256"
        }
      ],
      "stateMutability": "view",
      "type": "function"
    },
    {
      "inputs": [
        {
          "internalType": "uint256",
          "name": "_nftId",
          "type": "uint256"
        }
      ],
      "name": "claimReward",
      "outputs": [],
      "stateMutability": "nonpayable",
      "type": "function"
    },
    {
      "inputs": [
        {
          "internalType": "uint256",
          "name": "_nftId",
          "type": "uint256"
        }
      ],
      "name": "claimToken",
      "outputs": [],
      "stateMutability": "nonpayable",
      "type": "function"
    },
    {
      "inputs": [],
      "name": "get_owner",
      "outputs": [
        {
          "internalType": "address",
          "name": "",
          "type": "address"
        }
      ],
      "stateMutability": "view",
      "type": "function"
    },
    {
      "inputs": [],
      "name": "owner",
      "outputs": [
        {
          "internalType": "address",
          "name": "",
          "type": "address"
        }
      ],
      "stateMutability": "view",
      "type": "function"
    },
    {
      "inputs": [
        {
          "internalType": "uint256",
          "name": "_nftId",
          "type": "uint256"
        }
      ],
      "name": "rewardNFT",
      "outputs": [],
      "stateMutability": "nonpayable",
      "type": "function"
    },
    {
      "inputs": [
        {
          "internalType": "uint256",
          "name": "_nftId",
          "type": "uint256"
        }
      ],
      "name": "stackNFT",
      "outputs": [
        {
          "internalType": "uint256",
          "name": "",
          "type": "uint256"
        }
      ],
      "stateMutability": "nonpayable",
      "type": "function"
    },
    {
      "inputs": [
        {
          "internalType": "uint256",
          "name": "",
          "type": "uint256"
        }
      ],
      "name": "staking",
      "outputs": [
        {
          "internalType": "uint256",
          "name": "nftId",
          "type": "uint256"
        },
        {
          "internalType": "address payable",
          "name": "owner",
          "type": "address"
        },
        {
          "internalType": "uint256",
          "name": "stackingBlock",
          "type": "uint256"
        }
      ],
      "stateMutability": "view",
      "type": "function"
    },
    {
      "inputs": [],
      "name": "standardTime",
      "outputs": [
        {
          "internalType": "uint256",
          "name": "",
          "type": "uint256"
        }
      ],
      "stateMutability": "view",
      "type": "function"
    },
    {
      "inputs": [],
      "name": "totalNFTs",
      "outputs": [
        {
          "internalType": "uint256",
          "name": "",
          "type": "uint256"
        }
      ],
      "stateMutability": "view",
      "type": "function"
    },
    {
      "inputs": [],
      "name": "wibuNFT",
      "outputs": [
        {
          "internalType": "contract WibuNFT",
          "name": "",
          "type": "address"
        }
      ],
      "stateMutability": "view",
      "type": "function"
    },
    {
      "inputs": [],
      "name": "wibuToken",
      "outputs": [
        {
          "internalType": "contract WibuToken",
          "name": "",
          "type": "address"
        }
      ],
      "stateMutability": "view",
      "type": "function"
    }
  ],
  "bytecode": "0x60806040523480156200001157600080fd5b506040516200175f3803806200175f8339818101604052810190620000379190620001ae565b336000806101000a81548173ffffffffffffffffffffffffffffffffffffffff021916908373ffffffffffffffffffffffffffffffffffffffff16021790555082600260006101000a81548173ffffffffffffffffffffffffffffffffffffffff021916908373ffffffffffffffffffffffffffffffffffffffff16021790555081600360006101000a81548173ffffffffffffffffffffffffffffffffffffffff021916908373ffffffffffffffffffffffffffffffffffffffff160217905550806004819055505050506200020a565b600080fd5b600073ffffffffffffffffffffffffffffffffffffffff82169050919050565b60006200013b826200010e565b9050919050565b6200014d816200012e565b81146200015957600080fd5b50565b6000815190506200016d8162000142565b92915050565b6000819050919050565b620001888162000173565b81146200019457600080fd5b50565b600081519050620001a8816200017d565b92915050565b600080600060608486031215620001ca57620001c962000109565b5b6000620001da868287016200015c565b9350506020620001ed868287016200015c565b9250506040620002008682870162000197565b9150509250925092565b611545806200021a6000396000f3fe608060405234801561001057600080fd5b50600436106100cf5760003560e01c806361841cd61161008c5780638da5cb5b116100665780638da5cb5b1461022c578063a97e2f731461024a578063a9e7c2e514610266578063ae169a5014610282576100cf565b806361841cd6146101ae5780637be3251b146101de57806383a9cd54146101fc576100cf565b80630ac298dc146100d45780630d0e96da146100f257806313e4464c146101105780631dbb2a22146101405780634f2ae3361461017257806354596af914610190575b600080fd5b6100dc61029e565b6040516100e99190610df6565b60405180910390f35b6100fa6102c7565b6040516101079190610e2a565b60405180910390f35b61012a60048036038101906101259190610e76565b6102cd565b6040516101379190610e2a565b60405180910390f35b61015a60048036038101906101559190610e76565b6102ed565b60405161016993929190610ec4565b60405180910390f35b61017a610337565b6040516101879190610e2a565b60405180910390f35b61019861033d565b6040516101a59190610f5a565b60405180910390f35b6101c860048036038101906101c39190610e76565b610363565b6040516101d59190610e2a565b60405180910390f35b6101e661038e565b6040516101f39190610f96565b60405180910390f35b61021660048036038101906102119190610e76565b6103b4565b6040516102239190610e2a565b60405180910390f35b61023461064c565b6040516102419190610df6565b60405180910390f35b610264600480360381019061025f9190610e76565b610670565b005b610280600480360381019061027b9190610e76565b610864565b005b61029c60048036038101906102979190610e76565b610aa0565b005b60008060009054906101000a900473ffffffffffffffffffffffffffffffffffffffff16905090565b60015481565b600060056000838152602001908152602001600020600201549050919050565b60056020528060005260406000206000915090508060000154908060010160009054906101000a900473ffffffffffffffffffffffffffffffffffffffff16908060020154905083565b60045481565b600260009054906101000a900473ffffffffffffffffffffffffffffffffffffffff1681565b60006005600083815260200190815260200160002060020154436103879190610fe0565b9050919050565b600360009054906101000a900473ffffffffffffffffffffffffffffffffffffffff1681565b60003373ffffffffffffffffffffffffffffffffffffffff16600260009054906101000a900473ffffffffffffffffffffffffffffffffffffffff1673ffffffffffffffffffffffffffffffffffffffff16636352211e846040518263ffffffff1660e01b81526004016104289190610e2a565b602060405180830381865afa158015610445573d6000803e3d6000fd5b505050506040513d601f19601f820116820180604052508101906104699190611040565b73ffffffffffffffffffffffffffffffffffffffff16146104bf576040517f08c379a00000000000000000000000000000000000000000000000000000000081526004016104b6906110f0565b60405180910390fd5b600160008154809291906104d290611110565b9190505550600260009054906101000a900473ffffffffffffffffffffffffffffffffffffffff1673ffffffffffffffffffffffffffffffffffffffff166323b872dd3330856040518463ffffffff1660e01b815260040161053693929190611158565b600060405180830381600087803b15801561055057600080fd5b505af1158015610564573d6000803e3d6000fd5b5050505060405180606001604052808381526020013373ffffffffffffffffffffffffffffffffffffffff16815260200143815250600560008481526020019081526020016000206000820151816000015560208201518160010160006101000a81548173ffffffffffffffffffffffffffffffffffffffff021916908373ffffffffffffffffffffffffffffffffffffffff16021790555060408201518160020155905050817ffd1eacc24143ee039ebafb759bef816d1c6fd0dfa0cc8e6352da402cbcee37f7334360405161063c92919061118f565b60405180910390a2439050919050565b60008054906101000a900473ffffffffffffffffffffffffffffffffffffffff1681565b3373ffffffffffffffffffffffffffffffffffffffff166005600083815260200190815260200160002060010160009054906101000a900473ffffffffffffffffffffffffffffffffffffffff1673ffffffffffffffffffffffffffffffffffffffff1614610714576040517f08c379a000000000000000000000000000000000000000000000000000000000815260040161070b906110f0565b60405180910390fd5b600060056000838152602001908152602001600020600001540361076d576040517f08c379a000000000000000000000000000000000000000000000000000000000815260040161076490611204565b60405180910390fd5b600260009054906101000a900473ffffffffffffffffffffffffffffffffffffffff1673ffffffffffffffffffffffffffffffffffffffff166323b872dd303360056000868152602001908152602001600020600001546040518463ffffffff1660e01b81526004016107e293929190611158565b600060405180830381600087803b1580156107fc57600080fd5b505af1158015610810573d6000803e3d6000fd5b50505050600560008281526020019081526020016000206000808201600090556001820160006101000a81549073ffffffffffffffffffffffffffffffffffffffff02191690556002820160009055505050565b3373ffffffffffffffffffffffffffffffffffffffff166005600083815260200190815260200160002060010160009054906101000a900473ffffffffffffffffffffffffffffffffffffffff1673ffffffffffffffffffffffffffffffffffffffff1614610908576040517f08c379a00000000000000000000000000000000000000000000000000000000081526004016108ff906110f0565b60405180910390fd5b600454600560008381526020019081526020016000206002015461092c9190611224565b43101561096e576040517f08c379a0000000000000000000000000000000000000000000000000000000008152600401610965906112ca565b60405180910390fd5b60006005600083815260200190815260200160002060000154036109c7576040517f08c379a00000000000000000000000000000000000000000000000000000000081526004016109be90611204565b60405180910390fd5b600360009054906101000a900473ffffffffffffffffffffffffffffffffffffffff1673ffffffffffffffffffffffffffffffffffffffff1663a9059cbb336012600a610a14919061141d565b612710610a219190611468565b6040518363ffffffff1660e01b8152600401610a3e92919061118f565b6020604051808303816000875af1158015610a5d573d6000803e3d6000fd5b505050506040513d601f19601f82011682018060405250810190610a8191906114e2565b5043600560008381526020019081526020016000206002018190555050565b3373ffffffffffffffffffffffffffffffffffffffff166005600083815260200190815260200160002060010160009054906101000a900473ffffffffffffffffffffffffffffffffffffffff1673ffffffffffffffffffffffffffffffffffffffff1614610b44576040517f08c379a0000000000000000000000000000000000000000000000000000000008152600401610b3b906110f0565b60405180910390fd5b6004546005600083815260200190815260200160002060020154610b689190611224565b431015610baa576040517f08c379a0000000000000000000000000000000000000000000000000000000008152600401610ba1906112ca565b60405180910390fd5b6000600560008381526020019081526020016000206000015403610c03576040517f08c379a0000000000000000000000000000000000000000000000000000000008152600401610bfa90611204565b60405180910390fd5b600360009054906101000a900473ffffffffffffffffffffffffffffffffffffffff1673ffffffffffffffffffffffffffffffffffffffff1663a9059cbb336012600a610c50919061141d565b612710610c5d9190611468565b6040518363ffffffff1660e01b8152600401610c7a92919061118f565b6020604051808303816000875af1158015610c99573d6000803e3d6000fd5b505050506040513d601f19601f82011682018060405250810190610cbd91906114e2565b50600260009054906101000a900473ffffffffffffffffffffffffffffffffffffffff1673ffffffffffffffffffffffffffffffffffffffff166323b872dd303360056000868152602001908152602001600020600001546040518463ffffffff1660e01b8152600401610d3393929190611158565b600060405180830381600087803b158015610d4d57600080fd5b505af1158015610d61573d6000803e3d6000fd5b50505050600560008281526020019081526020016000206000808201600090556001820160006101000a81549073ffffffffffffffffffffffffffffffffffffffff02191690556002820160009055505050565b600073ffffffffffffffffffffffffffffffffffffffff82169050919050565b6000610de082610db5565b9050919050565b610df081610dd5565b82525050565b6000602082019050610e0b6000830184610de7565b92915050565b6000819050919050565b610e2481610e11565b82525050565b6000602082019050610e3f6000830184610e1b565b92915050565b600080fd5b610e5381610e11565b8114610e5e57600080fd5b50565b600081359050610e7081610e4a565b92915050565b600060208284031215610e8c57610e8b610e45565b5b6000610e9a84828501610e61565b91505092915050565b6000610eae82610db5565b9050919050565b610ebe81610ea3565b82525050565b6000606082019050610ed96000830186610e1b565b610ee66020830185610eb5565b610ef36040830184610e1b565b949350505050565b6000819050919050565b6000610f20610f1b610f1684610db5565b610efb565b610db5565b9050919050565b6000610f3282610f05565b9050919050565b6000610f4482610f27565b9050919050565b610f5481610f39565b82525050565b6000602082019050610f6f6000830184610f4b565b92915050565b6000610f8082610f27565b9050919050565b610f9081610f75565b82525050565b6000602082019050610fab6000830184610f87565b92915050565b7f4e487b7100000000000000000000000000000000000000000000000000000000600052601160045260246000fd5b6000610feb82610e11565b9150610ff683610e11565b925082820390508181111561100e5761100d610fb1565b5b92915050565b61101d81610dd5565b811461102857600080fd5b50565b60008151905061103a81611014565b92915050565b60006020828403121561105657611055610e45565b5b60006110648482850161102b565b91505092915050565b600082825260208201905092915050565b7f596f7520617265206e6f7420746865206f776e6572206f662074686973204e4660008201527f5400000000000000000000000000000000000000000000000000000000000000602082015250565b60006110da60218361106d565b91506110e58261107e565b604082019050919050565b60006020820190508181036000830152611109816110cd565b9050919050565b600061111b82610e11565b91507fffffffffffffffffffffffffffffffffffffffffffffffffffffffffffffffff820361114d5761114c610fb1565b5b600182019050919050565b600060608201905061116d6000830186610de7565b61117a6020830185610de7565b6111876040830184610e1b565b949350505050565b60006040820190506111a46000830185610de7565b6111b16020830184610e1b565b9392505050565b7f596f752068617665206e6f7420737461636b656420616e79204e465400000000600082015250565b60006111ee601c8361106d565b91506111f9826111b8565b602082019050919050565b6000602082019050818103600083015261121d816111e1565b9050919050565b600061122f82610e11565b915061123a83610e11565b925082820190508082111561125257611251610fb1565b5b92915050565b7f4d696e696d756d20737461636b696e672074696d65206e6f742072656163686560008201527f6400000000000000000000000000000000000000000000000000000000000000602082015250565b60006112b460218361106d565b91506112bf82611258565b604082019050919050565b600060208201905081810360008301526112e3816112a7565b9050919050565b60008160011c9050919050565b6000808291508390505b60018511156113415780860481111561131d5761131c610fb1565b5b600185161561132c5780820291505b808102905061133a856112ea565b9450611301565b94509492505050565b60008261135a5760019050611416565b816113685760009050611416565b816001811461137e5760028114611388576113b7565b6001915050611416565b60ff84111561139a57611399610fb1565b5b8360020a9150848211156113b1576113b0610fb1565b5b50611416565b5060208310610133831016604e8410600b84101617156113ec5782820a9050838111156113e7576113e6610fb1565b5b611416565b6113f984848460016112f7565b925090508184048111156114105761140f610fb1565b5b81810290505b9392505050565b600061142882610e11565b915061143383610e11565b92506114607fffffffffffffffffffffffffffffffffffffffffffffffffffffffffffffffff848461134a565b905092915050565b600061147382610e11565b915061147e83610e11565b925082820261148c81610e11565b915082820484148315176114a3576114a2610fb1565b5b5092915050565b60008115159050919050565b6114bf816114aa565b81146114ca57600080fd5b50565b6000815190506114dc816114b6565b92915050565b6000602082840312156114f8576114f7610e45565b5b6000611506848285016114cd565b9150509291505056fea26469706673582212209473a57bf1a12692924d03d96c66e6ad38f09a366036f82040e13e1eec9a9a7164736f6c63430008120033",
  "linkReferences": {},
  "deployedLinkReferences": {}
}