{
  "_format": "hh-sol-artifact-1",
  "contractName": "WibuNFT",
  "sourceName": "contracts/WibuNFT.sol",
  "abi": [
    {
      "inputs": [],
      "stateMutability": "nonpayable",
      "type": "constructor"
    },
    {
      "anonymous": false,
      "inputs": [
        {
          "indexed": true,
          "internalType": "address",
          "name": "owner",
          "type": "address"
        },
        {
          "indexed": true,
          "internalType": "address",
          "name": "approved",
          "type": "address"
        },
        {
          "indexed": true,
          "internalType": "uint256",
          "name": "tokenId",
          "type": "uint256"
        }
      ],
      "name": "Approval",
      "type": "event"
    },
    {
      "anonymous": false,
      "inputs": [
        {
          "indexed": true,
          "internalType": "address",
          "name": "owner",
          "type": "address"
        },
        {
          "indexed": true,
          "internalType": "address",
          "name": "operator",
          "type": "address"
        },
        {
          "indexed": false,
          "internalType": "bool",
          "name": "approved",
          "type": "bool"
        }
      ],
      "name": "ApprovalForAll",
      "type": "event"
    },
    {
      "anonymous": false,
      "inputs": [
        {
          "indexed": false,
          "internalType": "uint256",
          "name": "_fromTokenId",
          "type": "uint256"
        },
        {
          "indexed": false,
          "internalType": "uint256",
          "name": "_toTokenId",
          "type": "uint256"
        }
      ],
      "name": "BatchMetadataUpdate",
      "type": "event"
    },
    {
      "anonymous": false,
      "inputs": [
        {
          "indexed": false,
          "internalType": "uint256",
          "name": "_tokenId",
          "type": "uint256"
        }
      ],
      "name": "MetadataUpdate",
      "type": "event"
    },
    {
      "anonymous": false,
      "inputs": [
        {
          "indexed": true,
          "internalType": "address",
          "name": "from",
          "type": "address"
        },
        {
          "indexed": true,
          "internalType": "address",
          "name": "to",
          "type": "address"
        },
        {
          "indexed": true,
          "internalType": "uint256",
          "name": "tokenId",
          "type": "uint256"
        }
      ],
      "name": "Transfer",
      "type": "event"
    },
    {
      "inputs": [
        {
          "internalType": "uint256",
          "name": "",
          "type": "uint256"
        }
      ],
      "name": "NFT_price",
      "outputs": [
        {
          "internalType": "uint256",
          "name": "",
          "type": "uint256"
        }
      ],
      "stateMutability": "view",
      "type": "function"
    },
    {
      "inputs": [],
      "name": "NFT_url",
      "outputs": [
        {
          "internalType": "string",
          "name": "",
          "type": "string"
        }
      ],
      "stateMutability": "view",
      "type": "function"
    },
    {
      "inputs": [
        {
          "internalType": "address",
          "name": "to",
          "type": "address"
        },
        {
          "internalType": "uint256",
          "name": "tokenId",
          "type": "uint256"
        }
      ],
      "name": "approve",
      "outputs": [],
      "stateMutability": "nonpayable",
      "type": "function"
    },
    {
      "inputs": [
        {
          "internalType": "uint256",
          "name": "_tokenId",
          "type": "uint256"
        }
      ],
      "name": "approveNFT",
      "outputs": [],
      "stateMutability": "nonpayable",
      "type": "function"
    },
    {
      "inputs": [
        {
          "internalType": "address",
          "name": "owner",
          "type": "address"
        }
      ],
      "name": "balanceOf",
      "outputs": [
        {
          "internalType": "uint256",
          "name": "",
          "type": "uint256"
        }
      ],
      "stateMutability": "view",
      "type": "function"
    },
    {
      "inputs": [
        {
          "internalType": "string",
          "name": "_NFT_url",
          "type": "string"
        }
      ],
      "name": "createNFT",
      "outputs": [
        {
          "internalType": "uint256",
          "name": "",
          "type": "uint256"
        }
      ],
      "stateMutability": "nonpayable",
      "type": "function"
    },
    {
      "inputs": [],
      "name": "getAllMyNft",
      "outputs": [
        {
          "internalType": "uint256[]",
          "name": "",
          "type": "uint256[]"
        }
      ],
      "stateMutability": "view",
      "type": "function"
    },
    {
      "inputs": [
        {
          "internalType": "uint256",
          "name": "tokenId",
          "type": "uint256"
        }
      ],
      "name": "getApproved",
      "outputs": [
        {
          "internalType": "address",
          "name": "",
          "type": "address"
        }
      ],
      "stateMutability": "view",
      "type": "function"
    },
    {
      "inputs": [
        {
          "internalType": "uint256",
          "name": "tokenId",
          "type": "uint256"
        }
      ],
      "name": "getNFTURI",
      "outputs": [
        {
          "internalType": "string",
          "name": "",
          "type": "string"
        }
      ],
      "stateMutability": "view",
      "type": "function"
    },
    {
      "inputs": [
        {
          "internalType": "address",
          "name": "owner",
          "type": "address"
        },
        {
          "internalType": "address",
          "name": "operator",
          "type": "address"
        }
      ],
      "name": "isApprovedForAll",
      "outputs": [
        {
          "internalType": "bool",
          "name": "",
          "type": "bool"
        }
      ],
      "stateMutability": "view",
      "type": "function"
    },
    {
      "inputs": [],
      "name": "name",
      "outputs": [
        {
          "internalType": "string",
          "name": "",
          "type": "string"
        }
      ],
      "stateMutability": "view",
      "type": "function"
    },
    {
      "inputs": [],
      "name": "owner",
      "outputs": [
        {
          "internalType": "address",
          "name": "",
          "type": "address"
        }
      ],
      "stateMutability": "view",
      "type": "function"
    },
    {
      "inputs": [
        {
          "internalType": "uint256",
          "name": "tokenId",
          "type": "uint256"
        }
      ],
      "name": "ownerOf",
      "outputs": [
        {
          "internalType": "address",
          "name": "",
          "type": "address"
        }
      ],
      "stateMutability": "view",
      "type": "function"
    },
    {
      "inputs": [
        {
          "internalType": "address",
          "name": "from",
          "type": "address"
        },
        {
          "internalType": "address",
          "name": "to",
          "type": "address"
        },
        {
          "internalType": "uint256",
          "name": "tokenId",
          "type": "uint256"
        }
      ],
      "name": "safeTransferFrom",
      "outputs": [],
      "stateMutability": "nonpayable",
      "type": "function"
    },
    {
      "inputs": [
        {
          "internalType": "address",
          "name": "from",
          "type": "address"
        },
        {
          "internalType": "address",
          "name": "to",
          "type": "address"
        },
        {
          "internalType": "uint256",
          "name": "tokenId",
          "type": "uint256"
        },
        {
          "internalType": "bytes",
          "name": "data",
          "type": "bytes"
        }
      ],
      "name": "safeTransferFrom",
      "outputs": [],
      "stateMutability": "nonpayable",
      "type": "function"
    },
    {
      "inputs": [
        {
          "internalType": "address",
          "name": "operator",
          "type": "address"
        },
        {
          "internalType": "bool",
          "name": "approved",
          "type": "bool"
        }
      ],
      "name": "setApprovalForAll",
      "outputs": [],
      "stateMutability": "nonpayable",
      "type": "function"
    },
    {
      "inputs": [
        {
          "internalType": "bytes4",
          "name": "interfaceId",
          "type": "bytes4"
        }
      ],
      "name": "supportsInterface",
      "outputs": [
        {
          "internalType": "bool",
          "name": "",
          "type": "bool"
        }
      ],
      "stateMutability": "view",
      "type": "function"
    },
    {
      "inputs": [],
      "name": "symbol",
      "outputs": [
        {
          "internalType": "string",
          "name": "",
          "type": "string"
        }
      ],
      "stateMutability": "view",
      "type": "function"
    },
    {
      "inputs": [
        {
          "internalType": "uint256",
          "name": "tokenId",
          "type": "uint256"
        }
      ],
      "name": "tokenURI",
      "outputs": [
        {
          "internalType": "string",
          "name": "",
          "type": "string"
        }
      ],
      "stateMutability": "view",
      "type": "function"
    },
    {
      "inputs": [
        {
          "internalType": "address",
          "name": "from",
          "type": "address"
        },
        {
          "internalType": "address",
          "name": "to",
          "type": "address"
        },
        {
          "internalType": "uint256",
          "name": "tokenId",
          "type": "uint256"
        }
      ],
      "name": "transferFrom",
      "outputs": [],
      "stateMutability": "nonpayable",
      "type": "function"
    },
    {
      "inputs": [
        {
          "internalType": "address",
          "name": "_to",
          "type": "address"
        },
        {
          "internalType": "uint256",
          "name": "_tokenId",
          "type": "uint256"
        }
      ],
      "name": "transferNFT",
      "outputs": [],
      "stateMutability": "nonpayable",
      "type": "function"
    }
  ],
  "bytecode": "0x60806040523480156200001157600080fd5b506040518060400160405280600881526020017f57696275204e46540000000000000000000000000000000000000000000000008152506040518060400160405280600481526020017f574942550000000000000000000000000000000000000000000000000000000081525081600090816200008f919062000365565b508060019081620000a1919062000365565b50505033600960006101000a81548173ffffffffffffffffffffffffffffffffffffffff021916908373ffffffffffffffffffffffffffffffffffffffff1602179055506200044c565b600081519050919050565b7f4e487b7100000000000000000000000000000000000000000000000000000000600052604160045260246000fd5b7f4e487b7100000000000000000000000000000000000000000000000000000000600052602260045260246000fd5b600060028204905060018216806200016d57607f821691505b60208210810362000183576200018262000125565b5b50919050565b60008190508160005260206000209050919050565b60006020601f8301049050919050565b600082821b905092915050565b600060088302620001ed7fffffffffffffffffffffffffffffffffffffffffffffffffffffffffffffffff82620001ae565b620001f98683620001ae565b95508019841693508086168417925050509392505050565b6000819050919050565b6000819050919050565b600062000246620002406200023a8462000211565b6200021b565b62000211565b9050919050565b6000819050919050565b620002628362000225565b6200027a62000271826200024d565b848454620001bb565b825550505050565b600090565b6200029162000282565b6200029e81848462000257565b505050565b5b81811015620002c657620002ba60008262000287565b600181019050620002a4565b5050565b601f8211156200031557620002df8162000189565b620002ea846200019e565b81016020851015620002fa578190505b6200031262000309856200019e565b830182620002a3565b50505b505050565b600082821c905092915050565b60006200033a600019846008026200031a565b1980831691505092915050565b600062000355838362000327565b9150826002028217905092915050565b6200037082620000eb565b67ffffffffffffffff8111156200038c576200038b620000f6565b5b62000398825462000154565b620003a5828285620002ca565b600060209050601f831160018114620003dd5760008415620003c8578287015190505b620003d4858262000347565b86555062000444565b601f198416620003ed8662000189565b60005b828110156200041757848901518255600182019150602085019450602081019050620003f0565b8683101562000437578489015162000433601f89168262000327565b8355505b6001600288020188555050505b505050505050565b612fa2806200045c6000396000f3fe608060405234801561001057600080fd5b50600436106101365760003560e01c806394ab67fe116100b8578063b88d4fde1161007c578063b88d4fde1461034b578063bdc130c214610367578063be0a7a7f14610385578063c87b56dd146103b5578063da2ed03e146103e5578063e985e9c51461041557610136565b806394ab67fe146102bb57806395d89b41146102d7578063a22cb465146102f5578063ad6ed71d14610311578063b63b3d571461032d57610136565b806323b872dd116100ff57806323b872dd1461020557806342842e0e146102215780636352211e1461023d57806370a082311461026d5780638da5cb5b1461029d57610136565b8062621fda1461013b57806301ffc9a71461016b57806306fdde031461019b578063081812fc146101b9578063095ea7b3146101e9575b600080fd5b61015560048036038101906101509190611cfc565b610445565b6040516101629190611db9565b60405180910390f35b61018560048036038101906101809190611e33565b610457565b6040516101929190611e7b565b60405180910390f35b6101a36104b8565b6040516101b09190611db9565b60405180910390f35b6101d360048036038101906101ce9190611cfc565b61054a565b6040516101e09190611ed7565b60405180910390f35b61020360048036038101906101fe9190611f1e565b610590565b005b61021f600480360381019061021a9190611f5e565b6106a7565b005b61023b60048036038101906102369190611f5e565b610707565b005b61025760048036038101906102529190611cfc565b610727565b6040516102649190611ed7565b60405180910390f35b61028760048036038101906102829190611fb1565b6107ad565b6040516102949190611fed565b60405180910390f35b6102a5610864565b6040516102b29190611ed7565b60405180910390f35b6102d560048036038101906102d09190611f1e565b61088a565b005b6102df610899565b6040516102ec9190611db9565b60405180910390f35b61030f600480360381019061030a9190612034565b61092b565b005b61032b60048036038101906103269190611cfc565b610941565b005b610335610970565b6040516103429190611db9565b60405180910390f35b610365600480360381019061036091906121a9565b6109fe565b005b61036f610a60565b60405161037c91906122ea565b60405180910390f35b61039f600480360381019061039a9190611cfc565b610b56565b6040516103ac9190611fed565b60405180910390f35b6103cf60048036038101906103ca9190611cfc565b610b6e565b6040516103dc9190611db9565b60405180910390f35b6103ff60048036038101906103fa91906123ad565b610c80565b60405161040c9190611fed565b60405180910390f35b61042f600480360381019061042a91906123f6565b610cb7565b60405161043c9190611e7b565b60405180910390f35b606061045082610b6e565b9050919050565b6000634906490660e01b7bffffffffffffffffffffffffffffffffffffffffffffffffffffffff1916827bffffffffffffffffffffffffffffffffffffffffffffffffffffffff191614806104b157506104b082610d4b565b5b9050919050565b6060600080546104c790612465565b80601f01602080910402602001604051908101604052809291908181526020018280546104f390612465565b80156105405780601f1061051557610100808354040283529160200191610540565b820191906000526020600020905b81548152906001019060200180831161052357829003601f168201915b5050505050905090565b600061055582610e2d565b6004600083815260200190815260200160002060009054906101000a900473ffffffffffffffffffffffffffffffffffffffff169050919050565b600061059b82610727565b90508073ffffffffffffffffffffffffffffffffffffffff168373ffffffffffffffffffffffffffffffffffffffff160361060b576040517f08c379a000000000000000000000000000000000000000000000000000000000815260040161060290612508565b60405180910390fd5b8073ffffffffffffffffffffffffffffffffffffffff1661062a610e78565b73ffffffffffffffffffffffffffffffffffffffff161480610659575061065881610653610e78565b610cb7565b5b610698576040517f08c379a000000000000000000000000000000000000000000000000000000000815260040161068f9061259a565b60405180910390fd5b6106a28383610e80565b505050565b6106b86106b2610e78565b82610f39565b6106f7576040517f08c379a00000000000000000000000000000000000000000000000000000000081526004016106ee9061262c565b60405180910390fd5b610702838383610fce565b505050565b610722838383604051806020016040528060008152506109fe565b505050565b600080610733836112c7565b9050600073ffffffffffffffffffffffffffffffffffffffff168173ffffffffffffffffffffffffffffffffffffffff16036107a4576040517f08c379a000000000000000000000000000000000000000000000000000000000815260040161079b90612698565b60405180910390fd5b80915050919050565b60008073ffffffffffffffffffffffffffffffffffffffff168273ffffffffffffffffffffffffffffffffffffffff160361081d576040517f08c379a00000000000000000000000000000000000000000000000000000000081526004016108149061272a565b60405180910390fd5b600360008373ffffffffffffffffffffffffffffffffffffffff1673ffffffffffffffffffffffffffffffffffffffff168152602001908152602001600020549050919050565b600960009054906101000a900473ffffffffffffffffffffffffffffffffffffffff1681565b610895338383610707565b5050565b6060600180546108a890612465565b80601f01602080910402602001604051908101604052809291908181526020018280546108d490612465565b80156109215780601f106108f657610100808354040283529160200191610921565b820191906000526020600020905b81548152906001019060200180831161090457829003601f168201915b5050505050905090565b61093d610936610e78565b8383611304565b5050565b61096d600960009054906101000a900473ffffffffffffffffffffffffffffffffffffffff1682610590565b50565b600a805461097d90612465565b80601f01602080910402602001604051908101604052809291908181526020018280546109a990612465565b80156109f65780601f106109cb576101008083540402835291602001916109f6565b820191906000526020600020905b8154815290600101906020018083116109d957829003601f168201915b505050505081565b610a0f610a09610e78565b83610f39565b610a4e576040517f08c379a0000000000000000000000000000000000000000000000000000000008152600401610a459061262c565b60405180910390fd5b610a5a84848484611470565b50505050565b60606000610a6e60076114cc565b67ffffffffffffffff811115610a8757610a8661207e565b5b604051908082528060200260200182016040528015610ab55781602001602082028036833780820191505090505b509050600080600190505b610aca60076114cc565b8111610b4d573373ffffffffffffffffffffffffffffffffffffffff16610af082610727565b73ffffffffffffffffffffffffffffffffffffffff1603610b3a5780838381518110610b1f57610b1e61274a565b5b6020026020010181815250508180610b36906127a8565b9250505b8080610b45906127a8565b915050610ac0565b50819250505090565b600b6020528060005260406000206000915090505481565b6060610b7982610e2d565b6000600660008481526020019081526020016000208054610b9990612465565b80601f0160208091040260200160405190810160405280929190818152602001828054610bc590612465565b8015610c125780601f10610be757610100808354040283529160200191610c12565b820191906000526020600020905b815481529060010190602001808311610bf557829003601f168201915b505050505090506000610c236114da565b90506000815103610c38578192505050610c7b565b600082511115610c6d578082604051602001610c5592919061282c565b60405160208183030381529060405292505050610c7b565b610c76846114f1565b925050505b919050565b6000610c8c6007611559565b6000610c9860076114cc565b9050610ca4338261156f565b610cae818461178c565b80915050919050565b6000600560008473ffffffffffffffffffffffffffffffffffffffff1673ffffffffffffffffffffffffffffffffffffffff16815260200190815260200160002060008373ffffffffffffffffffffffffffffffffffffffff1673ffffffffffffffffffffffffffffffffffffffff16815260200190815260200160002060009054906101000a900460ff16905092915050565b60007f80ac58cd000000000000000000000000000000000000000000000000000000007bffffffffffffffffffffffffffffffffffffffffffffffffffffffff1916827bffffffffffffffffffffffffffffffffffffffffffffffffffffffff19161480610e1657507f5b5e139f000000000000000000000000000000000000000000000000000000007bffffffffffffffffffffffffffffffffffffffffffffffffffffffff1916827bffffffffffffffffffffffffffffffffffffffffffffffffffffffff1916145b80610e265750610e2582611830565b5b9050919050565b610e368161189a565b610e75576040517f08c379a0000000000000000000000000000000000000000000000000000000008152600401610e6c90612698565b60405180910390fd5b50565b600033905090565b816004600083815260200190815260200160002060006101000a81548173ffffffffffffffffffffffffffffffffffffffff021916908373ffffffffffffffffffffffffffffffffffffffff160217905550808273ffffffffffffffffffffffffffffffffffffffff16610ef383610727565b73ffffffffffffffffffffffffffffffffffffffff167f8c5be1e5ebec7d5bd14f71427d1e84f3dd0314c0f7b2291e5b200ac8c7c3b92560405160405180910390a45050565b600080610f4583610727565b90508073ffffffffffffffffffffffffffffffffffffffff168473ffffffffffffffffffffffffffffffffffffffff161480610f875750610f868185610cb7565b5b80610fc557508373ffffffffffffffffffffffffffffffffffffffff16610fad8461054a565b73ffffffffffffffffffffffffffffffffffffffff16145b91505092915050565b8273ffffffffffffffffffffffffffffffffffffffff16610fee82610727565b73ffffffffffffffffffffffffffffffffffffffff1614611044576040517f08c379a000000000000000000000000000000000000000000000000000000000815260040161103b906128c2565b60405180910390fd5b600073ffffffffffffffffffffffffffffffffffffffff168273ffffffffffffffffffffffffffffffffffffffff16036110b3576040517f08c379a00000000000000000000000000000000000000000000000000000000081526004016110aa90612954565b60405180910390fd5b6110c083838360016118db565b8273ffffffffffffffffffffffffffffffffffffffff166110e082610727565b73ffffffffffffffffffffffffffffffffffffffff1614611136576040517f08c379a000000000000000000000000000000000000000000000000000000000815260040161112d906128c2565b60405180910390fd5b6004600082815260200190815260200160002060006101000a81549073ffffffffffffffffffffffffffffffffffffffff02191690556001600360008573ffffffffffffffffffffffffffffffffffffffff1673ffffffffffffffffffffffffffffffffffffffff168152602001908152602001600020600082825403925050819055506001600360008473ffffffffffffffffffffffffffffffffffffffff1673ffffffffffffffffffffffffffffffffffffffff16815260200190815260200160002060008282540192505081905550816002600083815260200190815260200160002060006101000a81548173ffffffffffffffffffffffffffffffffffffffff021916908373ffffffffffffffffffffffffffffffffffffffff160217905550808273ffffffffffffffffffffffffffffffffffffffff168473ffffffffffffffffffffffffffffffffffffffff167fddf252ad1be2c89b69c2b068fc378daa952ba7f163c4a11628f55a4df523b3ef60405160405180910390a46112c283838360016118e1565b505050565b60006002600083815260200190815260200160002060009054906101000a900473ffffffffffffffffffffffffffffffffffffffff169050919050565b8173ffffffffffffffffffffffffffffffffffffffff168373ffffffffffffffffffffffffffffffffffffffff1603611372576040517f08c379a0000000000000000000000000000000000000000000000000000000008152600401611369906129c0565b60405180910390fd5b80600560008573ffffffffffffffffffffffffffffffffffffffff1673ffffffffffffffffffffffffffffffffffffffff16815260200190815260200160002060008473ffffffffffffffffffffffffffffffffffffffff1673ffffffffffffffffffffffffffffffffffffffff16815260200190815260200160002060006101000a81548160ff0219169083151502179055508173ffffffffffffffffffffffffffffffffffffffff168373ffffffffffffffffffffffffffffffffffffffff167f17307eab39ab6107e8899845ad3d59bd9653f200f220920489ca2b5937696c31836040516114639190611e7b565b60405180910390a3505050565b61147b848484610fce565b611487848484846118e7565b6114c6576040517f08c379a00000000000000000000000000000000000000000000000000000000081526004016114bd90612a52565b60405180910390fd5b50505050565b600081600001549050919050565b606060405180602001604052806000815250905090565b60606114fc82610e2d565b60006115066114da565b905060008151116115265760405180602001604052806000815250611551565b8061153084611a6e565b60405160200161154192919061282c565b6040516020818303038152906040525b915050919050565b6001816000016000828254019250508190555050565b600073ffffffffffffffffffffffffffffffffffffffff168273ffffffffffffffffffffffffffffffffffffffff16036115de576040517f08c379a00000000000000000000000000000000000000000000000000000000081526004016115d590612abe565b60405180910390fd5b6115e78161189a565b15611627576040517f08c379a000000000000000000000000000000000000000000000000000000000815260040161161e90612b2a565b60405180910390fd5b6116356000838360016118db565b61163e8161189a565b1561167e576040517f08c379a000000000000000000000000000000000000000000000000000000000815260040161167590612b2a565b60405180910390fd5b6001600360008473ffffffffffffffffffffffffffffffffffffffff1673ffffffffffffffffffffffffffffffffffffffff16815260200190815260200160002060008282540192505081905550816002600083815260200190815260200160002060006101000a81548173ffffffffffffffffffffffffffffffffffffffff021916908373ffffffffffffffffffffffffffffffffffffffff160217905550808273ffffffffffffffffffffffffffffffffffffffff16600073ffffffffffffffffffffffffffffffffffffffff167fddf252ad1be2c89b69c2b068fc378daa952ba7f163c4a11628f55a4df523b3ef60405160405180910390a46117886000838360016118e1565b5050565b6117958261189a565b6117d4576040517f08c379a00000000000000000000000000000000000000000000000000000000081526004016117cb90612bbc565b60405180910390fd5b806006600084815260200190815260200160002090816117f49190612d88565b507ff8e1a15aba9398e019f0b49df1a4fde98ee17ae345cb5f6b5e2c27f5033e8ce7826040516118249190611fed565b60405180910390a15050565b60007f01ffc9a7000000000000000000000000000000000000000000000000000000007bffffffffffffffffffffffffffffffffffffffffffffffffffffffff1916827bffffffffffffffffffffffffffffffffffffffffffffffffffffffff1916149050919050565b60008073ffffffffffffffffffffffffffffffffffffffff166118bc836112c7565b73ffffffffffffffffffffffffffffffffffffffff1614159050919050565b50505050565b50505050565b60006119088473ffffffffffffffffffffffffffffffffffffffff16611b3c565b15611a61578373ffffffffffffffffffffffffffffffffffffffff1663150b7a02611931610e78565b8786866040518563ffffffff1660e01b81526004016119539493929190612eaf565b6020604051808303816000875af192505050801561198f57506040513d601f19601f8201168201806040525081019061198c9190612f10565b60015b611a11573d80600081146119bf576040519150601f19603f3d011682016040523d82523d6000602084013e6119c4565b606091505b506000815103611a09576040517f08c379a0000000000000000000000000000000000000000000000000000000008152600401611a0090612a52565b60405180910390fd5b805181602001fd5b63150b7a0260e01b7bffffffffffffffffffffffffffffffffffffffffffffffffffffffff1916817bffffffffffffffffffffffffffffffffffffffffffffffffffffffff191614915050611a66565b600190505b949350505050565b606060006001611a7d84611b5f565b01905060008167ffffffffffffffff811115611a9c57611a9b61207e565b5b6040519080825280601f01601f191660200182016040528015611ace5781602001600182028036833780820191505090505b509050600082602001820190505b600115611b31578080600190039150507f3031323334353637383961626364656600000000000000000000000000000000600a86061a8153600a8581611b2557611b24612f3d565b5b04945060008503611adc575b819350505050919050565b6000808273ffffffffffffffffffffffffffffffffffffffff163b119050919050565b600080600090507a184f03e93ff9f4daa797ed6e38ed64bf6a1f0100000000000000008310611bbd577a184f03e93ff9f4daa797ed6e38ed64bf6a1f0100000000000000008381611bb357611bb2612f3d565b5b0492506040810190505b6d04ee2d6d415b85acef81000000008310611bfa576d04ee2d6d415b85acef81000000008381611bf057611bef612f3d565b5b0492506020810190505b662386f26fc100008310611c2957662386f26fc100008381611c1f57611c1e612f3d565b5b0492506010810190505b6305f5e1008310611c52576305f5e1008381611c4857611c47612f3d565b5b0492506008810190505b6127108310611c77576127108381611c6d57611c6c612f3d565b5b0492506004810190505b60648310611c9a5760648381611c9057611c8f612f3d565b5b0492506002810190505b600a8310611ca9576001810190505b80915050919050565b6000604051905090565b600080fd5b600080fd5b6000819050919050565b611cd981611cc6565b8114611ce457600080fd5b50565b600081359050611cf681611cd0565b92915050565b600060208284031215611d1257611d11611cbc565b5b6000611d2084828501611ce7565b91505092915050565b600081519050919050565b600082825260208201905092915050565b60005b83811015611d63578082015181840152602081019050611d48565b60008484015250505050565b6000601f19601f8301169050919050565b6000611d8b82611d29565b611d958185611d34565b9350611da5818560208601611d45565b611dae81611d6f565b840191505092915050565b60006020820190508181036000830152611dd38184611d80565b905092915050565b60007fffffffff0000000000000000000000000000000000000000000000000000000082169050919050565b611e1081611ddb565b8114611e1b57600080fd5b50565b600081359050611e2d81611e07565b92915050565b600060208284031215611e4957611e48611cbc565b5b6000611e5784828501611e1e565b91505092915050565b60008115159050919050565b611e7581611e60565b82525050565b6000602082019050611e906000830184611e6c565b92915050565b600073ffffffffffffffffffffffffffffffffffffffff82169050919050565b6000611ec182611e96565b9050919050565b611ed181611eb6565b82525050565b6000602082019050611eec6000830184611ec8565b92915050565b611efb81611eb6565b8114611f0657600080fd5b50565b600081359050611f1881611ef2565b92915050565b60008060408385031215611f3557611f34611cbc565b5b6000611f4385828601611f09565b9250506020611f5485828601611ce7565b9150509250929050565b600080600060608486031215611f7757611f76611cbc565b5b6000611f8586828701611f09565b9350506020611f9686828701611f09565b9250506040611fa786828701611ce7565b9150509250925092565b600060208284031215611fc757611fc6611cbc565b5b6000611fd584828501611f09565b91505092915050565b611fe781611cc6565b82525050565b60006020820190506120026000830184611fde565b92915050565b61201181611e60565b811461201c57600080fd5b50565b60008135905061202e81612008565b92915050565b6000806040838503121561204b5761204a611cbc565b5b600061205985828601611f09565b925050602061206a8582860161201f565b9150509250929050565b600080fd5b600080fd5b7f4e487b7100000000000000000000000000000000000000000000000000000000600052604160045260246000fd5b6120b682611d6f565b810181811067ffffffffffffffff821117156120d5576120d461207e565b5b80604052505050565b60006120e8611cb2565b90506120f482826120ad565b919050565b600067ffffffffffffffff8211156121145761211361207e565b5b61211d82611d6f565b9050602081019050919050565b82818337600083830152505050565b600061214c612147846120f9565b6120de565b90508281526020810184848401111561216857612167612079565b5b61217384828561212a565b509392505050565b600082601f8301126121905761218f612074565b5b81356121a0848260208601612139565b91505092915050565b600080600080608085870312156121c3576121c2611cbc565b5b60006121d187828801611f09565b94505060206121e287828801611f09565b93505060406121f387828801611ce7565b925050606085013567ffffffffffffffff81111561221457612213611cc1565b5b6122208782880161217b565b91505092959194509250565b600081519050919050565b600082825260208201905092915050565b6000819050602082019050919050565b61226181611cc6565b82525050565b60006122738383612258565b60208301905092915050565b6000602082019050919050565b60006122978261222c565b6122a18185612237565b93506122ac83612248565b8060005b838110156122dd5781516122c48882612267565b97506122cf8361227f565b9250506001810190506122b0565b5085935050505092915050565b60006020820190508181036000830152612304818461228c565b905092915050565b600067ffffffffffffffff8211156123275761232661207e565b5b61233082611d6f565b9050602081019050919050565b600061235061234b8461230c565b6120de565b90508281526020810184848401111561236c5761236b612079565b5b61237784828561212a565b509392505050565b600082601f83011261239457612393612074565b5b81356123a484826020860161233d565b91505092915050565b6000602082840312156123c3576123c2611cbc565b5b600082013567ffffffffffffffff8111156123e1576123e0611cc1565b5b6123ed8482850161237f565b91505092915050565b6000806040838503121561240d5761240c611cbc565b5b600061241b85828601611f09565b925050602061242c85828601611f09565b9150509250929050565b7f4e487b7100000000000000000000000000000000000000000000000000000000600052602260045260246000fd5b6000600282049050600182168061247d57607f821691505b6020821081036124905761248f612436565b5b50919050565b7f4552433732313a20617070726f76616c20746f2063757272656e74206f776e6560008201527f7200000000000000000000000000000000000000000000000000000000000000602082015250565b60006124f2602183611d34565b91506124fd82612496565b604082019050919050565b60006020820190508181036000830152612521816124e5565b9050919050565b7f4552433732313a20617070726f76652063616c6c6572206973206e6f7420746f60008201527f6b656e206f776e6572206f7220617070726f76656420666f7220616c6c000000602082015250565b6000612584603d83611d34565b915061258f82612528565b604082019050919050565b600060208201905081810360008301526125b381612577565b9050919050565b7f4552433732313a2063616c6c6572206973206e6f7420746f6b656e206f776e6560008201527f72206f7220617070726f76656400000000000000000000000000000000000000602082015250565b6000612616602d83611d34565b9150612621826125ba565b604082019050919050565b6000602082019050818103600083015261264581612609565b9050919050565b7f4552433732313a20696e76616c696420746f6b656e2049440000000000000000600082015250565b6000612682601883611d34565b915061268d8261264c565b602082019050919050565b600060208201905081810360008301526126b181612675565b9050919050565b7f4552433732313a2061646472657373207a65726f206973206e6f74206120766160008201527f6c6964206f776e65720000000000000000000000000000000000000000000000602082015250565b6000612714602983611d34565b915061271f826126b8565b604082019050919050565b6000602082019050818103600083015261274381612707565b9050919050565b7f4e487b7100000000000000000000000000000000000000000000000000000000600052603260045260246000fd5b7f4e487b7100000000000000000000000000000000000000000000000000000000600052601160045260246000fd5b60006127b382611cc6565b91507fffffffffffffffffffffffffffffffffffffffffffffffffffffffffffffffff82036127e5576127e4612779565b5b600182019050919050565b600081905092915050565b600061280682611d29565b61281081856127f0565b9350612820818560208601611d45565b80840191505092915050565b600061283882856127fb565b915061284482846127fb565b91508190509392505050565b7f4552433732313a207472616e736665722066726f6d20696e636f72726563742060008201527f6f776e6572000000000000000000000000000000000000000000000000000000602082015250565b60006128ac602583611d34565b91506128b782612850565b604082019050919050565b600060208201905081810360008301526128db8161289f565b9050919050565b7f4552433732313a207472616e7366657220746f20746865207a65726f2061646460008201527f7265737300000000000000000000000000000000000000000000000000000000602082015250565b600061293e602483611d34565b9150612949826128e2565b604082019050919050565b6000602082019050818103600083015261296d81612931565b9050919050565b7f4552433732313a20617070726f766520746f2063616c6c657200000000000000600082015250565b60006129aa601983611d34565b91506129b582612974565b602082019050919050565b600060208201905081810360008301526129d98161299d565b9050919050565b7f4552433732313a207472616e7366657220746f206e6f6e20455243373231526560008201527f63656976657220696d706c656d656e7465720000000000000000000000000000602082015250565b6000612a3c603283611d34565b9150612a47826129e0565b604082019050919050565b60006020820190508181036000830152612a6b81612a2f565b9050919050565b7f4552433732313a206d696e7420746f20746865207a65726f2061646472657373600082015250565b6000612aa8602083611d34565b9150612ab382612a72565b602082019050919050565b60006020820190508181036000830152612ad781612a9b565b9050919050565b7f4552433732313a20746f6b656e20616c7265616479206d696e74656400000000600082015250565b6000612b14601c83611d34565b9150612b1f82612ade565b602082019050919050565b60006020820190508181036000830152612b4381612b07565b9050919050565b7f45524337323155524953746f726167653a2055524920736574206f66206e6f6e60008201527f6578697374656e7420746f6b656e000000000000000000000000000000000000602082015250565b6000612ba6602e83611d34565b9150612bb182612b4a565b604082019050919050565b60006020820190508181036000830152612bd581612b99565b9050919050565b60008190508160005260206000209050919050565b60006020601f8301049050919050565b600082821b905092915050565b600060088302612c3e7fffffffffffffffffffffffffffffffffffffffffffffffffffffffffffffffff82612c01565b612c488683612c01565b95508019841693508086168417925050509392505050565b6000819050919050565b6000612c85612c80612c7b84611cc6565b612c60565b611cc6565b9050919050565b6000819050919050565b612c9f83612c6a565b612cb3612cab82612c8c565b848454612c0e565b825550505050565b600090565b612cc8612cbb565b612cd3818484612c96565b505050565b5b81811015612cf757612cec600082612cc0565b600181019050612cd9565b5050565b601f821115612d3c57612d0d81612bdc565b612d1684612bf1565b81016020851015612d25578190505b612d39612d3185612bf1565b830182612cd8565b50505b505050565b600082821c905092915050565b6000612d5f60001984600802612d41565b1980831691505092915050565b6000612d788383612d4e565b9150826002028217905092915050565b612d9182611d29565b67ffffffffffffffff811115612daa57612da961207e565b5b612db48254612465565b612dbf828285612cfb565b600060209050601f831160018114612df25760008415612de0578287015190505b612dea8582612d6c565b865550612e52565b601f198416612e0086612bdc565b60005b82811015612e2857848901518255600182019150602085019450602081019050612e03565b86831015612e455784890151612e41601f891682612d4e565b8355505b6001600288020188555050505b505050505050565b600081519050919050565b600082825260208201905092915050565b6000612e8182612e5a565b612e8b8185612e65565b9350612e9b818560208601611d45565b612ea481611d6f565b840191505092915050565b6000608082019050612ec46000830187611ec8565b612ed16020830186611ec8565b612ede6040830185611fde565b8181036060830152612ef08184612e76565b905095945050505050565b600081519050612f0a81611e07565b92915050565b600060208284031215612f2657612f25611cbc565b5b6000612f3484828501612efb565b91505092915050565b7f4e487b7100000000000000000000000000000000000000000000000000000000600052601260045260246000fdfea2646970667358221220519fd8948e980a2b07ed0b6ad147bc1446ff6e0ecc7181ed023ea5a33870343864736f6c63430008120033",
  "linkReferences": {},
  "deployedLinkReferences": {}
}